{
  "address": "0x5bf5b11053e734690269C6B9D438F8C9d48F528A",
  "abi": [
    {
      "inputs": [
        {
          "internalType": "address",
          "name": "_controller",
          "type": "address"
        },
        {
          "internalType": "address",
          "name": "_pool",
          "type": "address"
        },
        {
          "internalType": "address",
          "name": "_compUSDC",
          "type": "address"
        },
        {
          "internalType": "address",
          "name": "_COMP",
          "type": "address"
        },
        {
          "internalType": "address",
          "name": "_comptroller",
          "type": "address"
        }
      ],
      "stateMutability": "nonpayable",
      "type": "constructor"
    },
    {
      "anonymous": false,
      "inputs": [
        {
          "indexed": false,
          "internalType": "address",
          "name": "account",
          "type": "address"
        }
      ],
      "name": "Open",
      "type": "event"
    },
    {
      "anonymous": false,
      "inputs": [
        {
          "indexed": false,
          "internalType": "address",
          "name": "account",
          "type": "address"
        }
      ],
      "name": "Paused",
      "type": "event"
    },
    {
      "anonymous": false,
      "inputs": [
        {
          "indexed": false,
          "internalType": "address",
          "name": "account",
          "type": "address"
        }
      ],
      "name": "Shutdown",
      "type": "event"
    },
    {
      "anonymous": false,
      "inputs": [
        {
          "indexed": false,
          "internalType": "address",
          "name": "account",
          "type": "address"
        }
      ],
      "name": "Unpaused",
      "type": "event"
    },
    {
      "anonymous": false,
      "inputs": [
        {
          "indexed": true,
          "internalType": "address",
          "name": "previousSwapManager",
          "type": "address"
        },
        {
          "indexed": true,
          "internalType": "address",
          "name": "newSwapManager",
          "type": "address"
        }
      ],
      "name": "UpdatedSwapManager",
      "type": "event"
    },
    {
      "inputs": [],
      "name": "NAME",
      "outputs": [
        {
          "internalType": "string",
          "name": "",
          "type": "string"
        }
      ],
      "stateMutability": "view",
      "type": "function"
    },
    {
      "inputs": [],
      "name": "VERSION",
      "outputs": [
        {
          "internalType": "string",
          "name": "",
          "type": "string"
        }
      ],
      "stateMutability": "view",
      "type": "function"
    },
    {
      "inputs": [],
      "name": "approveToken",
      "outputs": [],
      "stateMutability": "nonpayable",
      "type": "function"
    },
    {
      "inputs": [],
      "name": "beforeWithdraw",
      "outputs": [],
      "stateMutability": "nonpayable",
      "type": "function"
    },
    {
      "inputs": [],
      "name": "collateralToken",
      "outputs": [
        {
          "internalType": "contract IERC20",
          "name": "",
          "type": "address"
        }
      ],
      "stateMutability": "view",
      "type": "function"
    },
    {
      "inputs": [],
      "name": "controller",
      "outputs": [
        {
          "internalType": "contract IController",
          "name": "",
          "type": "address"
        }
      ],
      "stateMutability": "view",
      "type": "function"
    },
    {
      "inputs": [
        {
          "internalType": "uint256",
          "name": "amount",
          "type": "uint256"
        }
      ],
      "name": "convertFrom18",
      "outputs": [
        {
          "internalType": "uint256",
          "name": "",
          "type": "uint256"
        }
      ],
      "stateMutability": "pure",
      "type": "function"
    },
    {
      "inputs": [],
      "name": "createKeeperList",
      "outputs": [],
      "stateMutability": "nonpayable",
      "type": "function"
    },
    {
      "inputs": [
        {
          "internalType": "uint256",
          "name": "_amount",
          "type": "uint256"
        }
      ],
      "name": "deposit",
      "outputs": [],
      "stateMutability": "nonpayable",
      "type": "function"
    },
    {
      "inputs": [],
      "name": "depositAll",
      "outputs": [],
      "stateMutability": "nonpayable",
      "type": "function"
    },
    {
      "inputs": [],
      "name": "interestEarned",
      "outputs": [
        {
          "internalType": "uint256",
          "name": "collateralEarned",
          "type": "uint256"
        }
      ],
      "stateMutability": "view",
      "type": "function"
    },
    {
      "inputs": [
        {
          "internalType": "address",
          "name": "_token",
          "type": "address"
        }
      ],
      "name": "isReservedToken",
      "outputs": [
        {
          "internalType": "bool",
          "name": "",
          "type": "bool"
        }
      ],
      "stateMutability": "view",
      "type": "function"
    },
    {
      "inputs": [],
      "name": "isUpgradable",
      "outputs": [
        {
          "internalType": "bool",
          "name": "",
          "type": "bool"
        }
      ],
      "stateMutability": "view",
      "type": "function"
    },
    {
      "inputs": [],
      "name": "keepers",
      "outputs": [
        {
          "internalType": "contract IAddressListExt",
          "name": "",
          "type": "address"
        }
      ],
      "stateMutability": "view",
      "type": "function"
    },
    {
      "inputs": [],
      "name": "migrateIn",
      "outputs": [],
      "stateMutability": "nonpayable",
      "type": "function"
    },
    {
      "inputs": [],
      "name": "migrateOut",
      "outputs": [],
      "stateMutability": "nonpayable",
      "type": "function"
    },
    {
      "inputs": [],
      "name": "pause",
      "outputs": [],
      "stateMutability": "nonpayable",
      "type": "function"
    },
    {
      "inputs": [],
      "name": "paused",
      "outputs": [
        {
          "internalType": "bool",
          "name": "",
          "type": "bool"
        }
      ],
      "stateMutability": "view",
      "type": "function"
    },
    {
      "inputs": [],
      "name": "pendingFee",
      "outputs": [
        {
          "internalType": "uint256",
          "name": "",
          "type": "uint256"
        }
      ],
      "stateMutability": "view",
      "type": "function"
    },
    {
      "inputs": [],
      "name": "pool",
      "outputs": [
        {
          "internalType": "address",
          "name": "",
          "type": "address"
        }
      ],
      "stateMutability": "view",
      "type": "function"
    },
    {
      "inputs": [],
      "name": "rebalance",
      "outputs": [],
      "stateMutability": "nonpayable",
      "type": "function"
    },
    {
      "inputs": [],
      "name": "receiptToken",
      "outputs": [
        {
          "internalType": "address",
          "name": "",
          "type": "address"
        }
      ],
      "stateMutability": "view",
      "type": "function"
    },
    {
      "inputs": [],
      "name": "resetApproval",
      "outputs": [],
      "stateMutability": "nonpayable",
      "type": "function"
    },
    {
      "inputs": [
        {
          "internalType": "address",
          "name": "_swapManager",
          "type": "address"
        }
      ],
      "name": "setSwapManager",
      "outputs": [],
      "stateMutability": "nonpayable",
      "type": "function"
    },
    {
      "inputs": [
        {
          "internalType": "address",
          "name": "_weth",
          "type": "address"
        }
      ],
      "name": "setWETH",
      "outputs": [],
      "stateMutability": "nonpayable",
      "type": "function"
    },
    {
      "inputs": [],
      "name": "stopEverything",
      "outputs": [
        {
          "internalType": "bool",
          "name": "",
          "type": "bool"
        }
      ],
      "stateMutability": "view",
      "type": "function"
    },
    {
      "inputs": [],
      "name": "swapManager",
      "outputs": [
        {
          "internalType": "contract ISwapManager",
          "name": "",
          "type": "address"
        }
      ],
      "stateMutability": "view",
      "type": "function"
    },
    {
      "inputs": [
        {
          "internalType": "address",
          "name": "_fromToken",
          "type": "address"
        }
      ],
      "name": "sweepErc20",
      "outputs": [],
      "stateMutability": "nonpayable",
      "type": "function"
    },
    {
      "inputs": [],
      "name": "token",
      "outputs": [
        {
          "internalType": "address",
          "name": "",
          "type": "address"
        }
      ],
      "stateMutability": "view",
      "type": "function"
    },
    {
      "inputs": [],
      "name": "totalLocked",
      "outputs": [
        {
          "internalType": "uint256",
          "name": "",
          "type": "uint256"
        }
      ],
      "stateMutability": "view",
      "type": "function"
    },
    {
      "inputs": [],
      "name": "unpause",
      "outputs": [],
      "stateMutability": "nonpayable",
      "type": "function"
    },
    {
      "inputs": [
        {
          "internalType": "address",
          "name": "_swapManager",
          "type": "address"
        }
      ],
      "name": "updateSwapManager",
      "outputs": [],
      "stateMutability": "nonpayable",
      "type": "function"
    },
    {
      "inputs": [
        {
          "internalType": "uint256",
          "name": "_amount",
          "type": "uint256"
        }
      ],
      "name": "withdraw",
      "outputs": [],
      "stateMutability": "nonpayable",
      "type": "function"
    },
    {
      "inputs": [],
      "name": "withdrawAll",
      "outputs": [],
      "stateMutability": "nonpayable",
      "type": "function"
    }
  ],
  "transactionHash": "0x5da90216d838977ebab5d8f9a4ef90e8df074a1574ed35a4d286d7c7af4e3a40",
  "args": [
    "0x276C216D241856199A83bf27b2286659e5b877D3",
    "0x3347B4d90ebe72BeFb30444C9966B2B990aE9FcB",
    "0x39AA39c021dfbaE8faC545936693aC917d5E7563",
    "0xc00e94Cb662C3520282E6f5717214004A7f26888",
    "0x3d9819210A31b4961b30EF54bE2aeD79B9c9Cd3B"
  ],
  "solcInputHash": "266d54f5da24701ace045fb957018aed",
  "bytecode": "0x6101606040526000805475e382d9f2394a359b01006faa8a1864b8a60d2710000062010000600160b01b0319909116179055600280546001600160a01b03191673c02aaa39b223fe8d0a0e5c4f27ead9083c756cc21790553480156200006457600080fd5b50604051620044de380380620044de833981810160405260a08110156200008a57600080fd5b5080516020820151604083015160608401516080909401519293919290919084848484848484846001600160a01b0383166200010d576040805162461bcd60e51b815260206004820152601a60248201527f636f6e74726f6c6c65722d616464726573732d69732d7a65726f000000000000604482015290519081900360640190fd5b826001600160a01b0316635b16ebb7836040518263ffffffff1660e01b815260040180826001600160a01b0316815260200191505060206040518083038186803b1580156200015b57600080fd5b505afa15801562000170573d6000803e3d6000fd5b505050506040513d60208110156200018757600080fd5b5051620001ce576040805162461bcd60e51b815260206004820152601060248201526f1b9bdd0b584b5d985b1a590b5c1bdbdb60821b604482015290519081900360640190fd5b6001600160601b0319606084811b821660805283901b1660e05260408051637e062a3560e11b815290516001600160a01b0384169163fc0c546a916004808301926020929190829003018186803b1580156200022957600080fd5b505afa1580156200023e573d6000803e3d6000fd5b505050506040513d60208110156200025557600080fd5b50516001600160601b0319606091821b811660a05291901b1660c05250506001600160a01b038216620002cf576040805162461bcd60e51b815260206004820152601b60248201527f526577617264546f6b656e2061646472657373206973207a65726f0000000000604482015290519081900360640190fd5b6001600160601b0319606093841b81166101005291831b82166101205290911b16610140525050505050505060805160601c60a05160601c60c05160601c60e05160601c6101005160601c6101205160601c6101405160601c613fef620004ef6000398061070f52806132395250806107ca5280610a715280611f7c528061330852806133ac525080610a365280610c725280610d175280610df05280611b655280611bef5280611e4a528061212452806121dd528061235a5280612436528061261d52806127b25280612bdc5280612c9d5280612e155280612e9152806131eb528061359e5250806104cb528061053152806109a75280610dc65280611060528061162b52806116e152806118085280611cde5280611df652806122a152806125f5528061290e52806129cb5280612ad25280612bba5280612c0b5280612cf65280612deb52806134a55280613537528061363b52806136bb528061376a528061381a525080611aab5250806107f25280611031528061135c52806117d95280611af65280611cff5280611da05280611dd45280611e28528061252a52806125d3528061292f52806133cd52806133f6528061356a5250806104ef52806105d3528061068552806109245280610abb5280610e8f52806110fb528061117e528061121052806112d9528061138052806118975280611acf5280612272528061299c5280612aa35280612cc752806134e7528061379b5250613fef6000f3fe608060405234801561001057600080fd5b50600436106102265760003560e01c80638456cb591161012a578063b6b55f25116100bd578063ec78e8321161008c578063fb589de211610071578063fb589de21461049c578063fc0c546a146104b9578063ffa1ad74146104c157610226565b8063ec78e8321461048c578063f77c47911461049457610226565b8063b6b55f2514610439578063d9fe3eae14610456578063de5f62681461047c578063ea7c85021461048457610226565b8063a3f4df7e116100f9578063a3f4df7e146103a4578063b000c32814610421578063b2016bd414610429578063b3fc176c1461043157610226565b80638456cb5914610384578063853828b61461038c578063951dc22c1461039457806399b71d5c1461039c57610226565b80634938649a116101bd5780635b769f3c1161018c578063643090bc11610171578063643090bc1461036c578063709d039d146103745780637d7c2a1c1461037c57610226565b80635b769f3c1461033e5780635c975abb1461036457610226565b80634938649a146103005780634c36fad7146103085780635479d9401461032e578063568914121461033657610226565b8063374261ab116101f9578063374261ab1461029c5780633f4ba83a146102b6578063419f7753146102be578063440d7248146102c657610226565b806316f0115b1461022b5780632e1a7d4d1461024f57806330284efc1461026e578063330b8b7114610294575b600080fd5b6102336104c9565b604080516001600160a01b039092168252519081900360200190f35b61026c6004803603602081101561026557600080fd5b50356104ed565b005b61026c6004803603602081101561028457600080fd5b50356001600160a01b03166105d1565b61026c610683565b6102a461070a565b60408051918252519081900360200190f35b61026c610922565b61026c6109a5565b6102ec600480360360208110156102dc57600080fd5b50356001600160a01b0316610a32565b604080519115158252519081900360200190f35b6102ec610aab565b61026c6004803603602081101561031e57600080fd5b50356001600160a01b0316610ab9565b6102ec610c6e565b6102a4610d0f565b61026c6004803603602081101561035457600080fd5b50356001600160a01b0316610e8d565b6102ec610f37565b6102a4610f40565b610233610f46565b61026c610f5b565b61026c6110f9565b61026c61117c565b6102336111ff565b61026c61120e565b6103ac61129e565b6040805160208082528351818301528351919283929083019185019080838360005b838110156103e65781810151838201526020016103ce565b50505050905090810190601f1680156104135780820380516001836020036101000a031916815260200191505b509250505060405180910390f35b61026c6112d7565b61023361135a565b61026c61137e565b61026c6004803603602081101561044f57600080fd5b5035611401565b61026c6004803603602081101561046c57600080fd5b50356001600160a01b03166114dc565b61026c61170a565b61026c611895565b610233611aa9565b610233611acd565b6102a4600480360360208110156104b257600080fd5b5035611af1565b610233611af4565b6103ac611b18565b7f000000000000000000000000000000000000000000000000000000000000000081565b7f00000000000000000000000000000000000000000000000000000000000000006001600160a01b031661051f611b51565b6001600160a01b0316148061056c57507f00000000000000000000000000000000000000000000000000000000000000006001600160a01b0316610561611b51565b6001600160a01b0316145b6105bd576040805162461bcd60e51b815260206004820152601860248201527f63616c6c65722d69732d6e6f742d617574686f72697a65640000000000000000604482015290519081900360640190fd5b6105c5611b55565b6105ce81611bed565b50565b7f00000000000000000000000000000000000000000000000000000000000000006001600160a01b0316610603611b51565b6001600160a01b03161461064c576040805162461bcd60e51b815260206004820152601c6024820152600080516020613f64833981519152604482015290519081900360640190fd5b600080546001600160a01b03909216620100000275ffffffffffffffffffffffffffffffffffffffff000019909216919091179055565b7f00000000000000000000000000000000000000000000000000000000000000006001600160a01b03166106b5611b51565b6001600160a01b0316146106fe576040805162461bcd60e51b815260206004820152601c6024820152600080516020613f64833981519152604482015290519081900360640190fd5b6107086000611dc7565b565b6000807f00000000000000000000000000000000000000000000000000000000000000006001600160a01b031663cc7ebdc4306040518263ffffffff1660e01b815260040180826001600160a01b0316815260200191505060206040518083038186803b15801561077a57600080fd5b505afa15801561078e573d6000803e3d6000fd5b505050506040513d60208110156107a457600080fd5b50519050801561091e576000805460408051631d1f307960e31b81526001600160a01b037f0000000000000000000000000000000000000000000000000000000000000000811660048301527f000000000000000000000000000000000000000000000000000000000000000081166024830152604482018690529151620100009093049091169263e8f983c892606480840193829003018186803b15801561084c57600080fd5b505afa158015610860573d6000803e3d6000fd5b505050506040513d6000823e601f3d908101601f19168201604052606081101561088957600080fd5b81019080805160405193929190846401000000008211156108a957600080fd5b9083019060208201858111156108be57600080fd5b82518660208202830111640100000000821117156108db57600080fd5b82525081516020918201928201910280838360005b838110156109085781810151838201526020016108f0565b5050505091909101604052506020015194505050505b5090565b7f00000000000000000000000000000000000000000000000000000000000000006001600160a01b0316610954611b51565b6001600160a01b03161461099d576040805162461bcd60e51b815260206004820152601c6024820152600080516020613f64833981519152604482015290519081900360640190fd5b610708611fab565b7f00000000000000000000000000000000000000000000000000000000000000006001600160a01b03166109d7611b51565b6001600160a01b031614610708576040805162461bcd60e51b815260206004820152601660248201527f63616c6c65722d69732d6e6f742d7468652d706f6f6c00000000000000000000604482015290519081900360640190fd5b60007f00000000000000000000000000000000000000000000000000000000000000006001600160a01b0316826001600160a01b03161480610aa557507f00000000000000000000000000000000000000000000000000000000000000006001600160a01b0316826001600160a01b0316145b92915050565b600054610100900460ff1681565b7f00000000000000000000000000000000000000000000000000000000000000006001600160a01b0316610aeb611b51565b6001600160a01b031614610b34576040805162461bcd60e51b815260206004820152601c6024820152600080516020613f64833981519152604482015290519081900360640190fd5b6001600160a01b038116610b8f576040805162461bcd60e51b815260206004820152601260248201527f736d2d616464726573732d69732d7a65726f0000000000000000000000000000604482015290519081900360640190fd5b6000546001600160a01b0382811662010000909204161415610bf8576040805162461bcd60e51b815260206004820152600a60248201527f736d2d69732d73616d6500000000000000000000000000000000000000000000604482015290519081900360640190fd5b600080546040516001600160a01b03808516936201000090930416917f2d19927e7cac08ceb98b38898a4fdff6da6a27295b9a2d62fe250408ebe044e191a3600080546001600160a01b03909216620100000275ffffffffffffffffffffffffffffffffffffffff000019909216919091179055565b60007f00000000000000000000000000000000000000000000000000000000000000006001600160a01b03166370a08231306040518263ffffffff1660e01b815260040180826001600160a01b0316815260200191505060206040518083038186803b158015610cdd57600080fd5b505afa158015610cf1573d6000803e3d6000fd5b505050506040513d6020811015610d0757600080fd5b505115905090565b600080610e6b7f00000000000000000000000000000000000000000000000000000000000000006001600160a01b03166370a08231306040518263ffffffff1660e01b815260040180826001600160a01b0316815260200191505060206040518083038186803b158015610d8257600080fd5b505afa158015610d96573d6000803e3d6000fd5b505050506040513d6020811015610dac57600080fd5b5051604080516370a0823160e01b81526001600160a01b037f00000000000000000000000000000000000000000000000000000000000000008116600483015291517f0000000000000000000000000000000000000000000000000000000000000000909216916370a0823191602480820192602092909190829003018186803b158015610e3957600080fd5b505afa158015610e4d573d6000803e3d6000fd5b505050506040513d6020811015610e6357600080fd5b5051906120af565b9050610e87610e78612110565b610e8183612347565b906123b1565b91505090565b7f00000000000000000000000000000000000000000000000000000000000000006001600160a01b0316610ebf611b51565b6001600160a01b031614610f08576040805162461bcd60e51b815260206004820152601c6024820152600080516020613f64833981519152604482015290519081900360640190fd5b6002805473ffffffffffffffffffffffffffffffffffffffff19166001600160a01b0392909216919091179055565b60005460ff1681565b60035481565b6000546201000090046001600160a01b031681565b6001546001600160a01b0316635dbe47e8610f74611b51565b6040518263ffffffff1660e01b815260040180826001600160a01b0316815260200191505060206040518083038186803b158015610fb157600080fd5b505afa158015610fc5573d6000803e3d6000fd5b505050506040513d6020811015610fdb57600080fd5b5051611025576040805162461bcd60e51b815260206004820152601460248201527331b0b63632b916b4b996b737ba16b5b2b2b832b960611b604482015290519081900360640190fd5b61102d61240e565b60007f00000000000000000000000000000000000000000000000000000000000000006001600160a01b03166370a082317f00000000000000000000000000000000000000000000000000000000000000006040518263ffffffff1660e01b815260040180826001600160a01b0316815260200191505060206040518083038186803b1580156110bc57600080fd5b505afa1580156110d0573d6000803e3d6000fd5b505050506040513d60208110156110e657600080fd5b5051905080156105ce576105ce816125c6565b7f00000000000000000000000000000000000000000000000000000000000000006001600160a01b031661112b611b51565b6001600160a01b031614611174576040805162461bcd60e51b815260206004820152601c6024820152600080516020613f64833981519152604482015290519081900360640190fd5b6107086126ff565b7f00000000000000000000000000000000000000000000000000000000000000006001600160a01b03166111ae611b51565b6001600160a01b0316146111f7576040805162461bcd60e51b815260206004820152601c6024820152600080516020613f64833981519152604482015290519081900360640190fd5b61070861278d565b6001546001600160a01b031681565b7f00000000000000000000000000000000000000000000000000000000000000006001600160a01b0316611240611b51565b6001600160a01b031614611289576040805162461bcd60e51b815260206004820152601c6024820152600080516020613f64833981519152604482015290519081900360640190fd5b6112936000611dc7565b610708600019611dc7565b6040518060400160405280601681526020017f53747261746567792d436f6d706f756e642d555344430000000000000000000081525081565b7f00000000000000000000000000000000000000000000000000000000000000006001600160a01b0316611309611b51565b6001600160a01b031614611352576040805162461bcd60e51b815260206004820152601c6024820152600080516020613f64833981519152604482015290519081900360640190fd5b61070861299a565b7f000000000000000000000000000000000000000000000000000000000000000081565b7f00000000000000000000000000000000000000000000000000000000000000006001600160a01b03166113b0611b51565b6001600160a01b0316146113f9576040805162461bcd60e51b815260206004820152601c6024820152600080516020613f64833981519152604482015290519081900360640190fd5b610708612cc5565b6001546001600160a01b0316635dbe47e861141a611b51565b6040518263ffffffff1660e01b815260040180826001600160a01b0316815260200191505060206040518083038186803b15801561145757600080fd5b505afa15801561146b573d6000803e3d6000fd5b505050506040513d602081101561148157600080fd5b50516114cb576040805162461bcd60e51b815260206004820152601460248201527331b0b63632b916b4b996b737ba16b5b2b2b832b960611b604482015290519081900360640190fd5b6114d3611b55565b6105ce816125c6565b6001546001600160a01b0316635dbe47e86114f5611b51565b6040518263ffffffff1660e01b815260040180826001600160a01b0316815260200191505060206040518083038186803b15801561153257600080fd5b505afa158015611546573d6000803e3d6000fd5b505050506040513d602081101561155c57600080fd5b50516115a6576040805162461bcd60e51b815260206004820152601460248201527331b0b63632b916b4b996b737ba16b5b2b2b832b960611b604482015290519081900360640190fd5b6115af81610a32565b15611601576040805162461bcd60e51b815260206004820152601460248201527f6e6f742d616c6c6f7765642d746f2d7377656570000000000000000000000000604482015290519081900360640190fd5b6001600160a01b03811673eeeeeeeeeeeeeeeeeeeeeeeeeeeeeeeeeeeeeeee1415611655576116507f000000000000000000000000000000000000000000000000000000000000000047612eb8565b6105ce565b6000816001600160a01b03166370a08231306040518263ffffffff1660e01b815260040180826001600160a01b0316815260200191505060206040518083038186803b1580156116a457600080fd5b505afa1580156116b8573d6000803e3d6000fd5b505050506040513d60208110156116ce57600080fd5b505190506117066001600160a01b0383167f000000000000000000000000000000000000000000000000000000000000000083612fa2565b5050565b6001546001600160a01b0316635dbe47e8611723611b51565b6040518263ffffffff1660e01b815260040180826001600160a01b0316815260200191505060206040518083038186803b15801561176057600080fd5b505afa158015611774573d6000803e3d6000fd5b505050506040513d602081101561178a57600080fd5b50516117d4576040805162461bcd60e51b815260206004820152601460248201527331b0b63632b916b4b996b737ba16b5b2b2b832b960611b604482015290519081900360640190fd5b6107087f00000000000000000000000000000000000000000000000000000000000000006001600160a01b03166370a082317f00000000000000000000000000000000000000000000000000000000000000006040518263ffffffff1660e01b815260040180826001600160a01b0316815260200191505060206040518083038186803b15801561186457600080fd5b505afa158015611878573d6000803e3d6000fd5b505050506040513d602081101561188e57600080fd5b5051611401565b7f00000000000000000000000000000000000000000000000000000000000000006001600160a01b03166118c7611b51565b6001600160a01b031614611910576040805162461bcd60e51b815260206004820152601c6024820152600080516020613f64833981519152604482015290519081900360640190fd5b6001546001600160a01b03161561196e576040805162461bcd60e51b815260206004820152601b60248201527f6b65657065722d6c6973742d616c72656164792d637265617465640000000000604482015290519081900360640190fd5b600073d57b41649f822c51a73c44ba0b3da4a880af00299050806001600160a01b0316630fab4d256040518163ffffffff1660e01b8152600401602060405180830381600087803b1580156119c257600080fd5b505af11580156119d6573d6000803e3d6000fd5b505050506040513d60208110156119ec57600080fd5b50516001805473ffffffffffffffffffffffffffffffffffffffff19166001600160a01b03928316179081905516632f2ff15d7f679f35d3aa86a98333c7fc7439a0bc12a13be742ae62a4c1cc3820782a2e11a6611a48611b51565b6040518363ffffffff1660e01b815260040180838152602001826001600160a01b0316815260200192505050600060405180830381600087803b158015611a8e57600080fd5b505af1158015611aa2573d6000803e3d6000fd5b5050505050565b7f000000000000000000000000000000000000000000000000000000000000000081565b7f000000000000000000000000000000000000000000000000000000000000000081565b90565b7f000000000000000000000000000000000000000000000000000000000000000090565b6040518060400160405280600581526020017f322e302e3200000000000000000000000000000000000000000000000000000081525081565b3390565b611b5d612110565b6003819055507f00000000000000000000000000000000000000000000000000000000000000006001600160a01b031663182df0f56040518163ffffffff1660e01b815260040160206040518083038186803b158015611bbc57600080fd5b505afa158015611bd0573d6000803e3d6000fd5b505050506040513d6020811015611be657600080fd5b5051600455565b7f00000000000000000000000000000000000000000000000000000000000000006001600160a01b031663852a12e3826040518263ffffffff1660e01b815260040180828152602001915050602060405180830381600087803b158015611c5357600080fd5b505af1158015611c67573d6000803e3d6000fd5b505050506040513d6020811015611c7d57600080fd5b505115611cd1576040805162461bcd60e51b815260206004820152600f60248201527f77697468647261772d6661696c65640000000000000000000000000000000000604482015290519081900360640190fd5b611cd9610708565b6105ce7f00000000000000000000000000000000000000000000000000000000000000007f00000000000000000000000000000000000000000000000000000000000000006001600160a01b03166370a08231306040518263ffffffff1660e01b815260040180826001600160a01b0316815260200191505060206040518083038186803b158015611d6a57600080fd5b505afa158015611d7e573d6000803e3d6000fd5b505050506040513d6020811015611d9457600080fd5b50516001600160a01b037f0000000000000000000000000000000000000000000000000000000000000000169190612fa2565b611e1b6001600160a01b037f0000000000000000000000000000000000000000000000000000000000000000167f000000000000000000000000000000000000000000000000000000000000000083612ff4565b611e6f6001600160a01b037f0000000000000000000000000000000000000000000000000000000000000000167f000000000000000000000000000000000000000000000000000000000000000083612ff4565b60005b600060029054906101000a90046001600160a01b03166001600160a01b031663c2fba6676040518163ffffffff1660e01b815260040160206040518083038186803b158015611ec057600080fd5b505afa158015611ed4573d6000803e3d6000fd5b505050506040513d6020811015611eea57600080fd5b50518110156117065760005460408051636e74a6f760e01b8152600481018490529051611fa3926201000090046001600160a01b031691636e74a6f7916024808301926020929190829003018186803b158015611f4657600080fd5b505afa158015611f5a573d6000803e3d6000fd5b505050506040513d6020811015611f7057600080fd5b50516001600160a01b037f0000000000000000000000000000000000000000000000000000000000000000169084612ff4565b600101611e72565b60005460ff16612002576040805162461bcd60e51b815260206004820152601460248201527f5061757361626c653a206e6f7420706175736564000000000000000000000000604482015290519081900360640190fd5b600054610100900460ff161561205f576040805162461bcd60e51b815260206004820152601260248201527f5061757361626c653a2073687574646f776e0000000000000000000000000000604482015290519081900360640190fd5b6000805460ff191690557f5db9ee0a495bf2e6ff9c91a7834c1ba4fdd244a5e8aa4e537bd38aeae4b073aa612092611b51565b604080516001600160a01b039092168252519081900360200190a1565b600082820183811015612109576040805162461bcd60e51b815260206004820152601b60248201527f536166654d6174683a206164646974696f6e206f766572666c6f770000000000604482015290519081900360640190fd5b9392505050565b60008061225d670de0b6b3a76400006122577f00000000000000000000000000000000000000000000000000000000000000006001600160a01b03166370a08231306040518263ffffffff1660e01b815260040180826001600160a01b0316815260200191505060206040518083038186803b15801561218f57600080fd5b505afa1580156121a3573d6000803e3d6000fd5b505050506040513d60208110156121b957600080fd5b5051600480546040805163182df0f560e01b81529051612251936001600160a01b037f0000000000000000000000000000000000000000000000000000000000000000169263182df0f59281830192602092829003018186803b15801561221f57600080fd5b505afa158015612233573d6000803e3d6000fd5b505050506040513d602081101561224957600080fd5b5051906123b1565b90613107565b90613160565b90506000612330670de0b6b3a76400006122577f00000000000000000000000000000000000000000000000000000000000000006001600160a01b0316634564a6c87f00000000000000000000000000000000000000000000000000000000000000006040518263ffffffff1660e01b815260040180826001600160a01b0316815260200191505060206040518083038186803b1580156122fd57600080fd5b505afa158015612311573d6000803e3d6000fd5b505050506040513d602081101561232757600080fd5b50518590613107565b60035490915061234090826120af565b9250505090565b6000610aa5670de0b6b3a76400006122577f00000000000000000000000000000000000000000000000000000000000000006001600160a01b031663182df0f56040518163ffffffff1660e01b815260040160206040518083038186803b1580156122fd57600080fd5b600082821115612408576040805162461bcd60e51b815260206004820152601e60248201527f536166654d6174683a207375627472616374696f6e206f766572666c6f770000604482015290519081900360640190fd5b50900390565b6124166131c7565b61241e611b55565b600354600061242c82613597565b90508015612525577f00000000000000000000000000000000000000000000000000000000000000006001600160a01b031663852a12e3836040518263ffffffff1660e01b815260040180828152602001915050602060405180830381600087803b15801561249a57600080fd5b505af11580156124ae573d6000803e3d6000fd5b505050506040513d60208110156124c457600080fd5b505115612518576040805162461bcd60e51b815260206004820181905260248201527f726562616c616e63654561726e65643a3a77697468647261772d6661696c6564604482015290519081900360640190fd5b6000600355612525610708565b6117067f00000000000000000000000000000000000000000000000000000000000000006001600160a01b03166370a08231306040518263ffffffff1660e01b815260040180826001600160a01b0316815260200191505060206040518083038186803b15801561259557600080fd5b505afa1580156125a9573d6000803e3d6000fd5b505050506040513d60208110156125bf57600080fd5b5051613633565b61261b6001600160a01b037f0000000000000000000000000000000000000000000000000000000000000000167f00000000000000000000000000000000000000000000000000000000000000003084613841565b7f00000000000000000000000000000000000000000000000000000000000000006001600160a01b031663a0712d68826040518263ffffffff1660e01b815260040180828152602001915050602060405180830381600087803b15801561268157600080fd5b505af1158015612695573d6000803e3d6000fd5b505050506040513d60208110156126ab57600080fd5b5051156105ce576040805162461bcd60e51b815260206004820152600e60248201527f6465706f7369742d6661696c6564000000000000000000000000000000000000604482015290519081900360640190fd5b60005460ff1615612757576040805162461bcd60e51b815260206004820152601060248201527f5061757361626c653a2070617573656400000000000000000000000000000000604482015290519081900360640190fd5b6000805460ff191660011790557f62e78cea01bee320cd4e420270b5ea74000d11b0c9f74754ebdbfc544b05a258612092611b51565b6000600355604080516370a0823160e01b815230600482015290516001600160a01b037f0000000000000000000000000000000000000000000000000000000000000000169163db006a759183916370a08231916024808301926020929190829003018186803b15801561280057600080fd5b505afa158015612814573d6000803e3d6000fd5b505050506040513d602081101561282a57600080fd5b5051604080517fffffffff0000000000000000000000000000000000000000000000000000000060e085901b16815260048101929092525160248083019260209291908290030181600087803b15801561288357600080fd5b505af1158015612897573d6000803e3d6000fd5b505050506040513d60208110156128ad57600080fd5b505115612901576040805162461bcd60e51b815260206004820152601360248201527f77697468647261772d616c6c2d6661696c656400000000000000000000000000604482015290519081900360640190fd5b612909610708565b6107087f00000000000000000000000000000000000000000000000000000000000000007f00000000000000000000000000000000000000000000000000000000000000006001600160a01b03166370a08231306040518263ffffffff1660e01b815260040180826001600160a01b0316815260200191505060206040518083038186803b158015611d6a57600080fd5b7f00000000000000000000000000000000000000000000000000000000000000006001600160a01b0316635b16ebb77f00000000000000000000000000000000000000000000000000000000000000006040518263ffffffff1660e01b815260040180826001600160a01b0316815260200191505060206040518083038186803b158015612a2757600080fd5b505afa158015612a3b573d6000803e3d6000fd5b505050506040513d6020811015612a5157600080fd5b5051612a97576040805162461bcd60e51b815260206004820152601060248201526f1b9bdd0b584b5d985b1a590b5c1bdbdb60821b604482015290519081900360640190fd5b306001600160a01b03167f00000000000000000000000000000000000000000000000000000000000000006001600160a01b031663228bfd9f7f00000000000000000000000000000000000000000000000000000000000000006040518263ffffffff1660e01b815260040180826001600160a01b0316815260200191505060206040518083038186803b158015612b2e57600080fd5b505afa158015612b42573d6000803e3d6000fd5b505050506040513d6020811015612b5857600080fd5b50516001600160a01b031614612bb5576040805162461bcd60e51b815260206004820152601460248201527f6e6f742d612d76616c69642d7374726174656779000000000000000000000000604482015290519081900360640190fd5b6107087f0000000000000000000000000000000000000000000000000000000000000000307f00000000000000000000000000000000000000000000000000000000000000006001600160a01b03166370a082317f00000000000000000000000000000000000000000000000000000000000000006040518263ffffffff1660e01b815260040180826001600160a01b0316815260200191505060206040518083038186803b158015612c6757600080fd5b505afa158015612c7b573d6000803e3d6000fd5b505050506040513d6020811015612c9157600080fd5b50516001600160a01b037f000000000000000000000000000000000000000000000000000000000000000016929190613841565b7f00000000000000000000000000000000000000000000000000000000000000006001600160a01b0316635b16ebb77f00000000000000000000000000000000000000000000000000000000000000006040518263ffffffff1660e01b815260040180826001600160a01b0316815260200191505060206040518083038186803b158015612d5257600080fd5b505afa158015612d66573d6000803e3d6000fd5b505050506040513d6020811015612d7c57600080fd5b5051612dc2576040805162461bcd60e51b815260206004820152601060248201526f1b9bdd0b584b5d985b1a590b5c1bdbdb60821b604482015290519081900360640190fd5b612dca6126ff565b6000600355604080516370a0823160e01b81523060048201529051610708917f0000000000000000000000000000000000000000000000000000000000000000916001600160a01b037f000000000000000000000000000000000000000000000000000000000000000016916370a08231916024808301926020929190829003018186803b158015612e5b57600080fd5b505afa158015612e6f573d6000803e3d6000fd5b505050506040513d6020811015612e8557600080fd5b50516001600160a01b037f0000000000000000000000000000000000000000000000000000000000000000169190612fa2565b80471015612f0d576040805162461bcd60e51b815260206004820152601d60248201527f416464726573733a20696e73756666696369656e742062616c616e6365000000604482015290519081900360640190fd5b6040516000906001600160a01b0384169083908381818185875af1925050503d8060008114612f58576040519150601f19603f3d011682016040523d82523d6000602084013e612f5d565b606091505b5050905080612f9d5760405162461bcd60e51b815260040180806020018281038252603a815260200180613eb9603a913960400191505060405180910390fd5b505050565b604080516001600160a01b038416602482015260448082018490528251808303909101815260649091019091526020810180516001600160e01b031663a9059cbb60e01b179052612f9d908490613897565b80158061307a575060408051636eb1769f60e11b81523060048201526001600160a01b03848116602483015291519185169163dd62ed3e91604480820192602092909190829003018186803b15801561304c57600080fd5b505afa158015613060573d6000803e3d6000fd5b505050506040513d602081101561307657600080fd5b5051155b6130b55760405162461bcd60e51b8152600401808060200182810382526036815260200180613f846036913960400191505060405180910390fd5b604080516001600160a01b038416602482015260448082018490528251808303909101815260649091019091526020810180516001600160e01b031663095ea7b360e01b179052612f9d908490613897565b60008261311657506000610aa5565b8282028284828161312357fe5b04146121095760405162461bcd60e51b8152600401808060200182810382526021815260200180613f196021913960400191505060405180910390fd5b60008082116131b6576040805162461bcd60e51b815260206004820152601a60248201527f536166654d6174683a206469766973696f6e206279207a65726f000000000000604482015290519081900360640190fd5b8183816131bf57fe5b049392505050565b604080516001808252818301909252606091602080830190803683370190505090507f00000000000000000000000000000000000000000000000000000000000000008160008151811061321757fe5b60200260200101906001600160a01b031690816001600160a01b0316815250507f00000000000000000000000000000000000000000000000000000000000000006001600160a01b0316631c3db2e030836040518363ffffffff1660e01b815260040180836001600160a01b0316815260200180602001828103825283818151815260200191508051906020019060200280838360005b838110156132c65781810151838201526020016132ae565b505050509050019350505050600060405180830381600087803b1580156132ec57600080fd5b505af1158015613300573d6000803e3d6000fd5b5050505060007f00000000000000000000000000000000000000000000000000000000000000006001600160a01b03166370a08231306040518263ffffffff1660e01b815260040180826001600160a01b0316815260200191505060206040518083038186803b15801561337357600080fd5b505afa158015613387573d6000803e3d6000fd5b505050506040513d602081101561339d57600080fd5b505190508015611706576133f27f00000000000000000000000000000000000000000000000000000000000000007f000000000000000000000000000000000000000000000000000000000000000083613948565b60007f00000000000000000000000000000000000000000000000000000000000000006001600160a01b03166370a08231306040518263ffffffff1660e01b815260040180826001600160a01b0316815260200191505060206040518083038186803b15801561346157600080fd5b505afa158015613475573d6000803e3d6000fd5b505050506040513d602081101561348b57600080fd5b5051604080516308ac94d960e31b81526001600160a01b037f000000000000000000000000000000000000000000000000000000000000000081166004830152915192935060009261353092670de0b6b3a764000092612257927f000000000000000000000000000000000000000000000000000000000000000090921691634564a6c891602480820192602092909190829003018186803b1580156122fd57600080fd5b90506135917f000000000000000000000000000000000000000000000000000000000000000061356084846123b1565b6001600160a01b037f0000000000000000000000000000000000000000000000000000000000000000169190612fa2565b50505050565b6000610aa57f00000000000000000000000000000000000000000000000000000000000000006001600160a01b031663182df0f56040518163ffffffff1660e01b815260040160206040518083038186803b1580156135f557600080fd5b505afa158015613609573d6000803e3d6000fd5b505050506040513d602081101561361f57600080fd5b505161225784670de0b6b3a7640000613107565b80156105ce577f00000000000000000000000000000000000000000000000000000000000000006001600160a01b031663b6b55f25826040518263ffffffff1660e01b815260040180828152602001915050600060405180830381600087803b15801561369f57600080fd5b505af11580156136b3573d6000803e3d6000fd5b5050505060007f00000000000000000000000000000000000000000000000000000000000000006001600160a01b03166370a08231306040518263ffffffff1660e01b815260040180826001600160a01b0316815260200191505060206040518083038186803b15801561372657600080fd5b505afa15801561373a573d6000803e3d6000fd5b505050506040513d602081101561375057600080fd5b50516040805163503700dd60e11b81526001600160a01b037f0000000000000000000000000000000000000000000000000000000000000000811660048301529151929350611706927f00000000000000000000000000000000000000000000000000000000000000009092169163a06e01ba91602480820192602092909190829003018186803b1580156137e457600080fd5b505afa1580156137f8573d6000803e3d6000fd5b505050506040513d602081101561380e57600080fd5b50516001600160a01b037f0000000000000000000000000000000000000000000000000000000000000000169083612fa2565b604080516001600160a01b0380861660248301528416604482015260648082018490528251808303909101815260849091019091526020810180516001600160e01b03166323b872dd60e01b1790526135919085905b60606138ec826040518060400160405280602081526020017f5361666545524332303a206c6f772d6c6576656c2063616c6c206661696c6564815250856001600160a01b0316613c9b9092919063ffffffff16565b805190915015612f9d5780806020019051602081101561390b57600080fd5b5051612f9d5760405162461bcd60e51b815260040180806020018281038252602a815260200180613f3a602a913960400191505060405180910390fd5b6000805460408051631d1f307960e31b81526001600160a01b038781166004830152868116602483015260448201869052915160609493849362010000909104169163e8f983c89160648083019286929190829003018186803b1580156139ae57600080fd5b505afa1580156139c2573d6000803e3d6000fd5b505050506040513d6000823e601f3d908101601f1916820160405260608110156139eb57600080fd5b8101908080516040519392919084640100000000821115613a0b57600080fd5b908301906020820185811115613a2057600080fd5b8251866020820283011164010000000082111715613a3d57600080fd5b82525081516020918201928201910280838360005b83811015613a6a578181015183820152602001613a52565b5050505091909101604090815260208301519201519497509095509293505083159150613c93905057600060029054906101000a90046001600160a01b03166001600160a01b0316636e74a6f7826040518263ffffffff1660e01b81526004018082815260200191505060206040518083038186803b158015613aec57600080fd5b505afa158015613b00573d6000803e3d6000fd5b505050506040513d6020811015613b1657600080fd5b50516040516338ed173960e01b8152600481018681526001602483018190523060648401819052601e42016084850181905260a060448601908152895160a487015289516001600160a01b03909716966338ed1739968c968c9594939092909160c401906020878101910280838360005b83811015613b9f578181015183820152602001613b87565b505050509050019650505050505050600060405180830381600087803b158015613bc857600080fd5b505af1158015613bdc573d6000803e3d6000fd5b505050506040513d6000823e601f3d908101601f191682016040526020811015613c0557600080fd5b8101908080516040519392919084640100000000821115613c2557600080fd5b908301906020820185811115613c3a57600080fd5b8251866020820283011164010000000082111715613c5757600080fd5b82525081516020918201928201910280838360005b83811015613c84578181015183820152602001613c6c565b50505050905001604052505050505b505050505050565b6060613caa8484600085613cb2565b949350505050565b606082471015613cf35760405162461bcd60e51b8152600401808060200182810382526026815260200180613ef36026913960400191505060405180910390fd5b613cfc85613e0e565b613d4d576040805162461bcd60e51b815260206004820152601d60248201527f416464726573733a2063616c6c20746f206e6f6e2d636f6e7472616374000000604482015290519081900360640190fd5b60006060866001600160a01b031685876040518082805190602001908083835b60208310613d8c5780518252601f199092019160209182019101613d6d565b6001836020036101000a03801982511681845116808217855250505050505090500191505060006040518083038185875af1925050503d8060008114613dee576040519150601f19603f3d011682016040523d82523d6000602084013e613df3565b606091505b5091509150613e03828286613e14565b979650505050505050565b3b151590565b60608315613e23575081612109565b825115613e335782518084602001fd5b8160405162461bcd60e51b81526004018080602001828103825283818151815260200191508051906020019080838360005b83811015613e7d578181015183820152602001613e65565b50505050905090810190601f168015613eaa5780820380516001836020036101000a031916815260200191505b509250505060405180910390fdfe416464726573733a20756e61626c6520746f2073656e642076616c75652c20726563697069656e74206d61792068617665207265766572746564416464726573733a20696e73756666696369656e742062616c616e636520666f722063616c6c536166654d6174683a206d756c7469706c69636174696f6e206f766572666c6f775361666545524332303a204552433230206f7065726174696f6e20646964206e6f74207375636365656463616c6c65722d69732d6e6f742d7468652d636f6e74726f6c6c6572000000005361666545524332303a20617070726f76652066726f6d206e6f6e2d7a65726f20746f206e6f6e2d7a65726f20616c6c6f77616e6365a2646970667358221220fb5c6ca51d4aac9cbfd7b703c7dee6394b57ea18800ce9e384cc3c03e63b630264736f6c634300060c0033",
  "devdoc": {
    "kind": "dev",
    "methods": {
      "approveToken()": {
        "details": "Approve all required tokens"
      },
      "convertFrom18(uint256)": {
        "details": "Convert from 18 decimals to token defined decimals. Default no conversion."
      },
      "createKeeperList()": {
        "details": "Create keeper list NOTE: Any function with onlyKeeper modifier will not work until this function is called. NOTE: Due to gas constraint this function cannot be called in constructor."
      },
      "deposit(uint256)": {
        "details": "Deposit collateral token into lending pool.",
        "params": {
          "_amount": "Amount of collateral token"
        }
      },
      "interestEarned()": {
        "details": "Make sure to return value in collateral token"
      },
      "isUpgradable()": {
        "details": "If there are no cTokens in strategy then it is upgradable"
      },
      "migrateIn()": {
        "details": "For moving between versions of similar strategies"
      },
      "migrateOut()": {
        "details": "For moving between versions of similar strategies"
      },
      "rebalance()": {
        "details": "Calculate interest fee on earning from Compound and transfer fee to fee collector. Deposit available collateral from pool into Compound. Anyone can call it except when paused."
      },
      "resetApproval()": {
        "details": "Reset approval of all required tokens"
      },
      "sweepErc20(address)": {
        "details": "sweep given token to vesper pool",
        "params": {
          "_fromToken": "token address to sweep"
        }
      },
      "token()": {
        "details": "Returns address of token correspond to collateral token"
      },
      "totalLocked()": {
        "details": "This value will be used in pool share calculation, so true totalLocked will be balance in Compound minus any pending fee to collect.",
        "returns": {
          "_0": "Return value will be in collateralToken defined decimal."
        }
      },
      "updateSwapManager(address)": {
        "params": {
          "_swapManager": "swap manager address"
        }
      },
      "withdraw(uint256)": {
        "details": "Withdraw collateral token from lending pool.",
        "params": {
          "_amount": "Amount of collateral token"
        }
      },
      "withdrawAll()": {
        "details": "Withdraw all collateral. No rebalance earning. Controller only function, called when migrating strategy."
      }
    },
    "version": 1
  },
  "userdoc": {
    "kind": "user",
    "methods": {
      "beforeWithdraw()": {
        "notice": "Vesper pools are using this function so it should exist in all strategies."
      },
      "createKeeperList()": {
        "notice": "Create keeper list"
      },
      "depositAll()": {
        "notice": "Deposit all collateral token from pool to other lending pool. Anyone can call it except when paused."
      },
      "interestEarned()": {
        "notice": "Returns interest earned in COMP since last rebalance."
      },
      "isReservedToken(address)": {
        "notice": "This method is deprecated and will be removed from Strategies in next release"
      },
      "isUpgradable()": {
        "notice": "Returns true if strategy can be upgraded."
      },
      "totalLocked()": {
        "notice": "Total collateral locked in Compound."
      },
      "updateSwapManager(address)": {
        "notice": "Update swap manager address"
      }
    },
    "version": 1
  },
  "storageLayout": {
    "storage": [
      {
        "astId": 4325,
        "contract": "contracts/strategies/CompoundStrategyUSDC.sol:CompoundStrategyUSDC",
        "label": "paused",
        "offset": 0,
        "slot": "0",
        "type": "t_bool"
      },
      {
        "astId": 4327,
        "contract": "contracts/strategies/CompoundStrategyUSDC.sol:CompoundStrategyUSDC",
        "label": "stopEverything",
        "offset": 1,
        "slot": "0",
        "type": "t_bool"
      },
      {
        "astId": 17087,
        "contract": "contracts/strategies/CompoundStrategyUSDC.sol:CompoundStrategyUSDC",
        "label": "swapManager",
        "offset": 2,
        "slot": "0",
        "type": "t_contract(ISwapManager)5045"
      },
      {
        "astId": 17098,
        "contract": "contracts/strategies/CompoundStrategyUSDC.sol:CompoundStrategyUSDC",
        "label": "keepers",
        "offset": 0,
        "slot": "1",
        "type": "t_contract(IAddressListExt)21932"
      },
      {
        "astId": 17104,
        "contract": "contracts/strategies/CompoundStrategyUSDC.sol:CompoundStrategyUSDC",
        "label": "WETH",
        "offset": 0,
        "slot": "2",
        "type": "t_address"
      },
      {
        "astId": 12754,
        "contract": "contracts/strategies/CompoundStrategyUSDC.sol:CompoundStrategyUSDC",
        "label": "pendingFee",
        "offset": 0,
        "slot": "3",
        "type": "t_uint256"
      },
      {
        "astId": 12762,
        "contract": "contracts/strategies/CompoundStrategyUSDC.sol:CompoundStrategyUSDC",
        "label": "exchangeRateStored",
        "offset": 0,
        "slot": "4",
        "type": "t_uint256"
      }
    ],
    "types": {
      "t_address": {
        "encoding": "inplace",
        "label": "address",
        "numberOfBytes": "20"
      },
      "t_bool": {
        "encoding": "inplace",
        "label": "bool",
        "numberOfBytes": "1"
      },
      "t_contract(IAddressListExt)21932": {
        "encoding": "inplace",
        "label": "contract IAddressListExt",
        "numberOfBytes": "20"
      },
      "t_contract(ISwapManager)5045": {
        "encoding": "inplace",
        "label": "contract ISwapManager",
        "numberOfBytes": "20"
      },
      "t_uint256": {
        "encoding": "inplace",
        "label": "uint256",
        "numberOfBytes": "32"
      }
    }
  }
}