{
  "address": "0x276C216D241856199A83bf27b2286659e5b877D3",
  "abi": [
    {
      "inputs": [
        {
          "internalType": "address",
          "name": "_addressListFactory",
          "type": "address"
        },
        {
          "internalType": "address",
          "name": "_uniswapRouter",
          "type": "address"
        }
      ],
      "stateMutability": "nonpayable",
      "type": "constructor"
    },
    {
      "anonymous": false,
      "inputs": [
        {
          "indexed": true,
          "internalType": "address",
          "name": "previousOwner",
          "type": "address"
        },
        {
          "indexed": true,
          "internalType": "address",
          "name": "newOwner",
          "type": "address"
        }
      ],
      "name": "OwnershipTransferred",
      "type": "event"
    },
    {
      "inputs": [],
      "name": "aaveReferralCode",
      "outputs": [
        {
          "internalType": "uint16",
          "name": "",
          "type": "uint16"
        }
      ],
      "stateMutability": "view",
      "type": "function"
    },
    {
      "inputs": [],
      "name": "acceptOwnership",
      "outputs": [],
      "stateMutability": "nonpayable",
      "type": "function"
    },
    {
      "inputs": [
        {
          "internalType": "address",
          "name": "_pool",
          "type": "address"
        }
      ],
      "name": "addPool",
      "outputs": [],
      "stateMutability": "nonpayable",
      "type": "function"
    },
    {
      "inputs": [
        {
          "internalType": "address",
          "name": "target",
          "type": "address"
        },
        {
          "internalType": "uint256",
          "name": "value",
          "type": "uint256"
        },
        {
          "internalType": "string",
          "name": "signature",
          "type": "string"
        },
        {
          "internalType": "bytes",
          "name": "data",
          "type": "bytes"
        }
      ],
      "name": "executeTransaction",
      "outputs": [
        {
          "internalType": "bytes",
          "name": "",
          "type": "bytes"
        }
      ],
      "stateMutability": "payable",
      "type": "function"
    },
    {
      "inputs": [
        {
          "internalType": "address[]",
          "name": "targets",
          "type": "address[]"
        },
        {
          "internalType": "uint256[]",
          "name": "values",
          "type": "uint256[]"
        },
        {
          "internalType": "string[]",
          "name": "signatures",
          "type": "string[]"
        },
        {
          "internalType": "bytes[]",
          "name": "calldatas",
          "type": "bytes[]"
        }
      ],
      "name": "executeTransactions",
      "outputs": [],
      "stateMutability": "payable",
      "type": "function"
    },
    {
      "inputs": [
        {
          "internalType": "address",
          "name": "",
          "type": "address"
        }
      ],
      "name": "feeCollector",
      "outputs": [
        {
          "internalType": "address",
          "name": "",
          "type": "address"
        }
      ],
      "stateMutability": "view",
      "type": "function"
    },
    {
      "inputs": [],
      "name": "founderFee",
      "outputs": [
        {
          "internalType": "uint256",
          "name": "",
          "type": "uint256"
        }
      ],
      "stateMutability": "view",
      "type": "function"
    },
    {
      "inputs": [],
      "name": "founderVault",
      "outputs": [
        {
          "internalType": "address",
          "name": "",
          "type": "address"
        }
      ],
      "stateMutability": "view",
      "type": "function"
    },
    {
      "inputs": [
        {
          "internalType": "address",
          "name": "",
          "type": "address"
        }
      ],
      "name": "interestFee",
      "outputs": [
        {
          "internalType": "uint256",
          "name": "",
          "type": "uint256"
        }
      ],
      "stateMutability": "view",
      "type": "function"
    },
    {
      "inputs": [
        {
          "internalType": "address",
          "name": "_pool",
          "type": "address"
        }
      ],
      "name": "isPool",
      "outputs": [
        {
          "internalType": "bool",
          "name": "",
          "type": "bool"
        }
      ],
      "stateMutability": "view",
      "type": "function"
    },
    {
      "inputs": [],
      "name": "owner",
      "outputs": [
        {
          "internalType": "address",
          "name": "",
          "type": "address"
        }
      ],
      "stateMutability": "view",
      "type": "function"
    },
    {
      "inputs": [
        {
          "internalType": "address",
          "name": "",
          "type": "address"
        }
      ],
      "name": "poolRewards",
      "outputs": [
        {
          "internalType": "address",
          "name": "",
          "type": "address"
        }
      ],
      "stateMutability": "view",
      "type": "function"
    },
    {
      "inputs": [],
      "name": "pools",
      "outputs": [
        {
          "internalType": "contract IAddressList",
          "name": "",
          "type": "address"
        }
      ],
      "stateMutability": "view",
      "type": "function"
    },
    {
      "inputs": [
        {
          "internalType": "address",
          "name": "",
          "type": "address"
        }
      ],
      "name": "rebalanceFriction",
      "outputs": [
        {
          "internalType": "uint256",
          "name": "",
          "type": "uint256"
        }
      ],
      "stateMutability": "view",
      "type": "function"
    },
    {
      "inputs": [
        {
          "internalType": "address",
          "name": "_pool",
          "type": "address"
        }
      ],
      "name": "removePool",
      "outputs": [],
      "stateMutability": "nonpayable",
      "type": "function"
    },
    {
      "inputs": [],
      "name": "renounceOwnership",
      "outputs": [],
      "stateMutability": "nonpayable",
      "type": "function"
    },
    {
      "inputs": [
        {
          "internalType": "address",
          "name": "_pool",
          "type": "address"
        },
        {
          "internalType": "address",
          "name": "_swapManager",
          "type": "address"
        },
        {
          "internalType": "address",
          "name": "_weth",
          "type": "address"
        }
      ],
      "name": "setStrategyInfo",
      "outputs": [],
      "stateMutability": "nonpayable",
      "type": "function"
    },
    {
      "inputs": [
        {
          "internalType": "address",
          "name": "",
          "type": "address"
        }
      ],
      "name": "strategy",
      "outputs": [
        {
          "internalType": "address",
          "name": "",
          "type": "address"
        }
      ],
      "stateMutability": "view",
      "type": "function"
    },
    {
      "inputs": [
        {
          "internalType": "address",
          "name": "proposedOwner",
          "type": "address"
        }
      ],
      "name": "transferOwnership",
      "outputs": [],
      "stateMutability": "nonpayable",
      "type": "function"
    },
    {
      "inputs": [],
      "name": "treasuryPool",
      "outputs": [
        {
          "internalType": "address",
          "name": "",
          "type": "address"
        }
      ],
      "stateMutability": "view",
      "type": "function"
    },
    {
      "inputs": [],
      "name": "uniswapRouter",
      "outputs": [
        {
          "internalType": "address",
          "name": "",
          "type": "address"
        }
      ],
      "stateMutability": "view",
      "type": "function"
    },
    {
      "inputs": [
        {
          "internalType": "uint16",
          "name": "referralCode",
          "type": "uint16"
        }
      ],
      "name": "updateAaveReferralCode",
      "outputs": [],
      "stateMutability": "nonpayable",
      "type": "function"
    },
    {
      "inputs": [
        {
          "internalType": "address",
          "name": "_pool",
          "type": "address"
        },
        {
          "internalType": "address",
          "name": "_collector",
          "type": "address"
        }
      ],
      "name": "updateFeeCollector",
      "outputs": [],
      "stateMutability": "nonpayable",
      "type": "function"
    },
    {
      "inputs": [
        {
          "internalType": "uint256",
          "name": "_founderFee",
          "type": "uint256"
        }
      ],
      "name": "updateFounderFee",
      "outputs": [],
      "stateMutability": "nonpayable",
      "type": "function"
    },
    {
      "inputs": [
        {
          "internalType": "address",
          "name": "_founderVault",
          "type": "address"
        }
      ],
      "name": "updateFounderVault",
      "outputs": [],
      "stateMutability": "nonpayable",
      "type": "function"
    },
    {
      "inputs": [
        {
          "internalType": "address",
          "name": "_pool",
          "type": "address"
        },
        {
          "internalType": "uint256",
          "name": "_interestFee",
          "type": "uint256"
        }
      ],
      "name": "updateInterestFee",
      "outputs": [],
      "stateMutability": "nonpayable",
      "type": "function"
    },
    {
      "inputs": [
        {
          "internalType": "address",
          "name": "_pool",
          "type": "address"
        },
        {
          "internalType": "address",
          "name": "_poolRewards",
          "type": "address"
        }
      ],
      "name": "updatePoolRewards",
      "outputs": [],
      "stateMutability": "nonpayable",
      "type": "function"
    },
    {
      "inputs": [
        {
          "internalType": "address",
          "name": "_pool",
          "type": "address"
        },
        {
          "internalType": "uint256",
          "name": "_f",
          "type": "uint256"
        }
      ],
      "name": "updateRebalanceFriction",
      "outputs": [],
      "stateMutability": "nonpayable",
      "type": "function"
    },
    {
      "inputs": [
        {
          "internalType": "address",
          "name": "_pool",
          "type": "address"
        },
        {
          "internalType": "address",
          "name": "_newStrategy",
          "type": "address"
        }
      ],
      "name": "updateStrategy",
      "outputs": [],
      "stateMutability": "nonpayable",
      "type": "function"
    },
    {
      "inputs": [
        {
          "internalType": "address",
          "name": "_pool",
          "type": "address"
        }
      ],
      "name": "updateTreasuryPool",
      "outputs": [],
      "stateMutability": "nonpayable",
      "type": "function"
    },
    {
      "inputs": [
        {
          "internalType": "address",
          "name": "_uniswapRouter",
          "type": "address"
        }
      ],
      "name": "updateUniswapRouter",
      "outputs": [],
      "stateMutability": "nonpayable",
      "type": "function"
    },
    {
      "inputs": [
        {
          "internalType": "address",
          "name": "_pool",
          "type": "address"
        },
        {
          "internalType": "uint256",
          "name": "_newWithdrawFee",
          "type": "uint256"
        }
      ],
      "name": "updateWithdrawFee",
      "outputs": [],
      "stateMutability": "nonpayable",
      "type": "function"
    },
    {
      "inputs": [
        {
          "internalType": "address",
          "name": "",
          "type": "address"
        }
      ],
      "name": "withdrawFee",
      "outputs": [
        {
          "internalType": "uint256",
          "name": "",
          "type": "uint256"
        }
      ],
      "stateMutability": "view",
      "type": "function"
    }
  ],
  "transactionHash": "0x83ee0ec84ce756be9726f21822d5ac5b3e770fc5f95b573720f15c76990441ca",
  "args": [
    "0xD57b41649f822C51a73C44Ba0B3da4A880aF0029",
    "0x7a250d5630B4cF539739dF2C5dAcb4c659F2488D"
  ],
  "solcInputHash": "266d54f5da24701ace045fb957018aed",
  "bytecode": "0x60a060405266b1a2bc2ec500006009553480156200001c57600080fd5b50604051620029a7380380620029a78339810160408190526200003f916200017d565b60006200004b62000149565b600080546001600160a01b0319166001600160a01b0383169081178255604051929350917f8be0079c531659141344cd1fd0a4f28419497f9722a3daafe3b4186f6b6457e0908290a3506000829050806001600160a01b0316630fab4d256040518163ffffffff1660e01b8152600401602060405180830381600087803b158015620000d657600080fd5b505af1158015620000eb573d6000803e3d6000fd5b505050506040513d601f19601f820116820180604052508101906200011191906200014d565b60601b6001600160601b03191660805250600b80546001600160a01b0319166001600160a01b039290921691909117905550620001d4565b3390565b6000602082840312156200015f578081fd5b81516001600160a01b038116811462000176578182fd5b9392505050565b6000806040838503121562000190578081fd5b82516200019d81620001bb565b6020840151909250620001b081620001bb565b809150509250929050565b6001600160a01b0381168114620001d157600080fd5b50565b60805160601c612783620002246000398061064952806108125280610a915280610df7528061102b5280611310528061152352806117a852806118ba52806119ef5280611b1c52506127836000f3fe6080604052600436106101fe5760003560e01c80636a2b11761161011d578063a06e01ba116100b0578063c5c51dca1161007f578063d914cd4b11610064578063d914cd4b14610592578063dd5aba4b146105b2578063f2fde38b146105d2576101fe565b8063c5c51dca14610568578063c8ec1b2a1461057d576101fe565b8063a06e01ba146104f3578063ac19a71b14610513578063b14a1e8e14610528578063b99c47bc14610548576101fe565b80637b62f070116100ec5780637b62f0701461047e5780638da5cb5b1461049e57806390182697146104b3578063908bb2ae146104d3576101fe565b80636a2b11761461041f578063715018a61461043f578063735de9f71461045457806379ba509714610469576101fe565b806329f88ace1161019557806348df58291161016457806348df5829146103aa5780634bc24c89146103bf57806350c5f230146103d25780635b16ebb7146103f2576101fe565b806329f88ace1461032a5780632ffd975c1461034a5780633b7d09461461036a5780634564a6c81461038a576101fe565b80631ac3ddeb116101d15780631ac3ddeb1461029057806320777aed146102bd5780632224fa25146102dd578063228bfd9f146102fd576101fe565b806301913bcc146102035780630b189c621461022557806310ec01b5146102505780631a5102ca14610270575b600080fd5b34801561020f57600080fd5b5061022361021e366004611e5d565b6105f2565b005b34801561023157600080fd5b5061023a6107ba565b60405161024791906126a6565b60405180910390f35b34801561025c57600080fd5b5061022361026b366004611edf565b6107c4565b34801561027c57600080fd5b5061022361028b3660046120a5565b610908565b34801561029c57600080fd5b506102b06102ab366004611e1e565b610955565b60405161024791906126b5565b3480156102c957600080fd5b506102236102d8366004611e1e565b610967565b6102f06102eb366004611f0a565b6109dc565b604051610247919061217b565b34801561030957600080fd5b5061031d610318366004611e1e565b610a28565b604051610247919061215c565b34801561033657600080fd5b50610223610345366004611e5d565b610a43565b34801561035657600080fd5b50610223610365366004611edf565b610da9565b34801561037657600080fd5b50610223610385366004611e1e565b610f4c565b34801561039657600080fd5b506102b06103a5366004611e1e565b6110b7565b3480156103b657600080fd5b5061031d6110c9565b6102236103cd366004611f87565b6110d8565b3480156103de57600080fd5b506102236103ed366004611e95565b6111da565b3480156103fe57600080fd5b5061041261040d366004611e1e565b6112f6565b6040516102479190612170565b34801561042b57600080fd5b506102b061043a366004611e1e565b61139b565b34801561044b57600080fd5b506102236113ad565b34801561046057600080fd5b5061031d611438565b34801561047557600080fd5b50610223611447565b34801561048a57600080fd5b50610223610499366004611edf565b6114d5565b3480156104aa57600080fd5b5061031d611640565b3480156104bf57600080fd5b506102236104ce3660046120c7565b61164f565b3480156104df57600080fd5b506102236104ee366004611e1e565b6116d3565b3480156104ff57600080fd5b5061031d61050e366004611e1e565b61172a565b34801561051f57600080fd5b5061031d611745565b34801561053457600080fd5b50610223610543366004611e1e565b61175a565b34801561055457600080fd5b50610223610563366004611e5d565b61186c565b34801561057457600080fd5b5061031d6119ed565b34801561058957600080fd5b506102b0611a11565b34801561059e57600080fd5b506102236105ad366004611e1e565b611a17565b3480156105be57600080fd5b5061031d6105cd366004611e1e565b611b51565b3480156105de57600080fd5b506102236105ed366004611e1e565b611b6c565b6105fa611be9565b6000546001600160a01b039081169116146106305760405162461bcd60e51b81526004016106279061244d565b60405180910390fd5b604051630bb7c8fd60e31b815282906001600160a01b037f00000000000000000000000000000000000000000000000000000000000000001690635dbe47e89061067e90849060040161215c565b60206040518083038186803b15801561069657600080fd5b505afa1580156106aa573d6000803e3d6000fd5b505050506040513d601f19601f820116820180604052508101906106ce9190612085565b6106ea5760405162461bcd60e51b81526004016106279061221c565b826001600160a01b0316826001600160a01b03166316f0115b6040518163ffffffff1660e01b815260040160206040518083038186803b15801561072d57600080fd5b505afa158015610741573d6000803e3d6000fd5b505050506040513d601f19601f820116820180604052508101906107659190611e41565b6001600160a01b03161461078b5760405162461bcd60e51b815260040161062790612595565b506001600160a01b03918216600090815260076020526040902080546001600160a01b03191691909216179055565b60085461ffff1681565b6107cc611be9565b6000546001600160a01b039081169116146107f95760405162461bcd60e51b81526004016106279061244d565b604051630bb7c8fd60e31b815282906001600160a01b037f00000000000000000000000000000000000000000000000000000000000000001690635dbe47e89061084790849060040161215c565b60206040518083038186803b15801561085f57600080fd5b505afa158015610873573d6000803e3d6000fd5b505050506040513d601f19601f820116820180604052508101906108979190612085565b6108b35760405162461bcd60e51b81526004016106279061221c565b6001600160a01b0383166000908152600560205260409020548214156108eb5760405162461bcd60e51b815260040161062790612303565b506001600160a01b03909116600090815260056020526040902055565b610910611be9565b6000546001600160a01b0390811691161461093d5760405162461bcd60e51b81526004016106279061244d565b6008805461ffff191661ffff92909216919091179055565b60026020526000908152604090205481565b61096f611be9565b6000546001600160a01b0390811691161461099c5760405162461bcd60e51b81526004016106279061244d565b600880546001600160a01b0390921662010000027fffffffffffffffffffff0000000000000000000000000000000000000000ffff909216919091179055565b60606109e6611be9565b6000546001600160a01b03908116911614610a135760405162461bcd60e51b81526004016106279061244d565b610a1f85858585611bed565b95945050505050565b6006602052600090815260409020546001600160a01b031681565b610a4b611be9565b6000546001600160a01b03908116911614610a785760405162461bcd60e51b81526004016106279061244d565b604051630bb7c8fd60e31b815282906001600160a01b037f00000000000000000000000000000000000000000000000000000000000000001690635dbe47e890610ac690849060040161215c565b60206040518083038186803b158015610ade57600080fd5b505afa158015610af2573d6000803e3d6000fd5b505050506040513d601f19601f82011682018060405250810190610b169190612085565b610b325760405162461bcd60e51b81526004016106279061221c565b6001600160a01b038216610b585760405162461bcd60e51b8152600401610627906122cc565b6001600160a01b038084166000908152600660205260409020548116908316811415610b965760405162461bcd60e51b8152600401610627906123df565b836001600160a01b0316836001600160a01b03166316f0115b6040518163ffffffff1660e01b815260040160206040518083038186803b158015610bd957600080fd5b505afa158015610bed573d6000803e3d6000fd5b505050506040513d601f19601f82011682018060405250810190610c119190611e41565b6001600160a01b031614610c375760405162461bcd60e51b815260040161062790612595565b836001600160a01b03821615610d2857816001600160a01b0316635479d9406040518163ffffffff1660e01b815260040160206040518083038186803b158015610c8057600080fd5b505afa158015610c94573d6000803e3d6000fd5b505050506040513d601f19601f82011682018060405250810190610cb89190612085565b610cd45760405162461bcd60e51b815260040161062790612416565b806001600160a01b031663330b8b716040518163ffffffff1660e01b8152600401600060405180830381600087803b158015610d0f57600080fd5b505af1158015610d23573d6000803e3d6000fd5b505050505b6001600160a01b0385811660009081526006602052604080822080546001600160a01b031916888516179055805163266dc75760e21b81529051928416926399b71d5c9260048084019391929182900301818387803b158015610d8a57600080fd5b505af1158015610d9e573d6000803e3d6000fd5b505050505050505050565b610db1611be9565b6000546001600160a01b03908116911614610dde5760405162461bcd60e51b81526004016106279061244d565b604051630bb7c8fd60e31b815282906001600160a01b037f00000000000000000000000000000000000000000000000000000000000000001690635dbe47e890610e2c90849060040161215c565b60206040518083038186803b158015610e4457600080fd5b505afa158015610e58573d6000803e3d6000fd5b505050506040513d601f19601f82011682018060405250810190610e7c9190612085565b610e985760405162461bcd60e51b81526004016106279061221c565b670de0b6b3a7640000821115610ec05760405162461bcd60e51b815260040161062790612371565b6001600160a01b038316600090815260026020526040902054821415610ef85760405162461bcd60e51b8152600401610627906123a8565b6001600160a01b0383811660009081526004602052604090205416610f2f5760405162461bcd60e51b815260040161062790612482565b506001600160a01b03909116600090815260026020526040902055565b610f54611be9565b6000546001600160a01b03908116911614610f815760405162461bcd60e51b81526004016106279061244d565b6000819050806001600160a01b03166318160ddd6040518163ffffffff1660e01b815260040160206040518083038186803b158015610fbf57600080fd5b505afa158015610fd3573d6000803e3d6000fd5b505050506040513d601f19601f82011682018060405250810190610ff791906120df565b156110145760405162461bcd60e51b815260040161062790612253565b604051631484968760e11b81526001600160a01b037f000000000000000000000000000000000000000000000000000000000000000016906329092d0e9061106090859060040161215c565b602060405180830381600087803b15801561107a57600080fd5b505af115801561108e573d6000803e3d6000fd5b505050506040513d601f19601f820116820180604052508101906110b29190612085565b505050565b60036020526000908152604090205481565b600a546001600160a01b031681565b6110e0611be9565b6000546001600160a01b0390811691161461110d5760405162461bcd60e51b81526004016106279061244d565b835161112b5760405162461bcd60e51b8152600401610627906124f0565b8251845114801561113d575081518451145b801561114a575080518451145b6111665760405162461bcd60e51b815260040161062790612527565b60005b84518110156111d3576111ca85828151811061118157fe5b602002602001015185838151811061119557fe5b60200260200101518584815181106111a957fe5b60200260200101518585815181106111bd57fe5b6020026020010151611bed565b50600101611169565b5050505050565b6111e2611be9565b6000546001600160a01b0390811691161461120f5760405162461bcd60e51b81526004016106279061244d565b6001600160a01b0380841660009081526006602052604090819020549051630c0a13bf60e21b81529116906330284efc9061124e90859060040161215c565b600060405180830381600087803b15801561126857600080fd5b505af115801561127c573d6000803e3d6000fd5b5050506001600160a01b03808516600090815260066020526040908190205490516316dda7cf60e21b815291169150635b769f3c906112bf90849060040161215c565b600060405180830381600087803b1580156112d957600080fd5b505af11580156112ed573d6000803e3d6000fd5b50505050505050565b604051630bb7c8fd60e31b81526000906001600160a01b037f00000000000000000000000000000000000000000000000000000000000000001690635dbe47e89061134590859060040161215c565b60206040518083038186803b15801561135d57600080fd5b505afa158015611371573d6000803e3d6000fd5b505050506040513d601f19601f820116820180604052508101906113959190612085565b92915050565b60056020526000908152604090205481565b6113b5611be9565b6000546001600160a01b039081169116146113e25760405162461bcd60e51b81526004016106279061244d565b600080546040516001600160a01b03909116907f8be0079c531659141344cd1fd0a4f28419497f9722a3daafe3b4186f6b6457e0908390a3600080546001600160a01b0319908116909155600180549091169055565b600b546001600160a01b031681565b6001546001600160a01b031633146114715760405162461bcd60e51b815260040161062790612671565b600154600080546040516001600160a01b0393841693909116917f8be0079c531659141344cd1fd0a4f28419497f9722a3daafe3b4186f6b6457e091a360018054600080546001600160a01b03199081166001600160a01b03841617909155169055565b6114dd611be9565b6000546001600160a01b0390811691161461150a5760405162461bcd60e51b81526004016106279061244d565b604051630bb7c8fd60e31b815282906001600160a01b037f00000000000000000000000000000000000000000000000000000000000000001690635dbe47e89061155890849060040161215c565b60206040518083038186803b15801561157057600080fd5b505afa158015611584573d6000803e3d6000fd5b505050506040513d601f19601f820116820180604052508101906115a89190612085565b6115c45760405162461bcd60e51b81526004016106279061221c565b670de0b6b3a76400008211156115ec5760405162461bcd60e51b81526004016106279061255e565b6001600160a01b03838116600090815260046020526040902054166116235760405162461bcd60e51b8152600401610627906125cc565b506001600160a01b03909116600090815260036020526040902055565b6000546001600160a01b031690565b611657611be9565b6000546001600160a01b039081169116146116845760405162461bcd60e51b81526004016106279061244d565b8060095414156116a65760405162461bcd60e51b8152600401610627906121e5565b670de0b6b3a76400008111156116ce5760405162461bcd60e51b81526004016106279061263a565b600955565b6116db611be9565b6000546001600160a01b039081169116146117085760405162461bcd60e51b81526004016106279061244d565b600b80546001600160a01b0319166001600160a01b0392909216919091179055565b6004602052600090815260409020546001600160a01b031681565b6008546201000090046001600160a01b031681565b611762611be9565b6000546001600160a01b0390811691161461178f5760405162461bcd60e51b81526004016106279061244d565b604051630bb7c8fd60e31b815281906001600160a01b037f00000000000000000000000000000000000000000000000000000000000000001690635dbe47e8906117dd90849060040161215c565b60206040518083038186803b1580156117f557600080fd5b505afa158015611809573d6000803e3d6000fd5b505050506040513d601f19601f8201168201806040525081019061182d9190612085565b6118495760405162461bcd60e51b81526004016106279061221c565b50600a80546001600160a01b0319166001600160a01b0392909216919091179055565b611874611be9565b6000546001600160a01b039081169116146118a15760405162461bcd60e51b81526004016106279061244d565b604051630bb7c8fd60e31b815282906001600160a01b037f00000000000000000000000000000000000000000000000000000000000000001690635dbe47e8906118ef90849060040161215c565b60206040518083038186803b15801561190757600080fd5b505afa15801561191b573d6000803e3d6000fd5b505050506040513d601f19601f8201168201806040525081019061193f9190612085565b61195b5760405162461bcd60e51b81526004016106279061221c565b6001600160a01b0382166119815760405162461bcd60e51b8152600401610627906124b9565b6001600160a01b03838116600090815260046020526040902054811690831614156119be5760405162461bcd60e51b8152600401610627906121ae565b506001600160a01b03918216600090815260046020526040902080546001600160a01b03191691909216179055565b7f000000000000000000000000000000000000000000000000000000000000000081565b60095481565b611a1f611be9565b6000546001600160a01b03908116911614611a4c5760405162461bcd60e51b81526004016106279061244d565b6001600160a01b038116611a725760405162461bcd60e51b81526004016106279061233a565b6000819050806001600160a01b03166318160ddd6040518163ffffffff1660e01b815260040160206040518083038186803b158015611ab057600080fd5b505afa158015611ac4573d6000803e3d6000fd5b505050506040513d601f19601f82011682018060405250810190611ae891906120df565b15611b055760405162461bcd60e51b815260040161062790612253565b604051630a3b0a4f60e01b81526001600160a01b037f00000000000000000000000000000000000000000000000000000000000000001690630a3b0a4f9061106090859060040161215c565b6007602052600090815260409020546001600160a01b031681565b611b74611be9565b6000546001600160a01b03908116911614611ba15760405162461bcd60e51b81526004016106279061244d565b6001600160a01b038116611bc75760405162461bcd60e51b81526004016106279061228a565b600180546001600160a01b0319166001600160a01b0392909216919091179055565b3390565b6060611bf7611be9565b6000546001600160a01b03908116911614611c245760405162461bcd60e51b81526004016106279061244d565b6060835160001415611c37575081611c63565b838051906020012083604051602001611c519291906120f7565b60405160208183030381529060405290505b60006060876001600160a01b03168784604051611c809190612140565b60006040518083038185875af1925050503d8060008114611cbd576040519150601f19603f3d011682016040523d82523d6000602084013e611cc2565b606091505b509150915081611ce45760405162461bcd60e51b815260040161062790612603565b979650505050505050565b600082601f830112611cff578081fd5b8135611d12611d0d826126e5565b6126be565b818152915060208083019084810160005b84811015611d4c57611d3a888484358a0101611db5565b84529282019290820190600101611d23565b505050505092915050565b600082601f830112611d67578081fd5b8135611d75611d0d826126e5565b818152915060208083019084810181840286018201871015611d9657600080fd5b60005b84811015611d4c57813584529282019290820190600101611d99565b600082601f830112611dc5578081fd5b813567ffffffffffffffff811115611ddb578182fd5b611dee601f8201601f19166020016126be565b9150808252836020828501011115611e0557600080fd5b8060208401602084013760009082016020015292915050565b600060208284031215611e2f578081fd5b8135611e3a81612735565b9392505050565b600060208284031215611e52578081fd5b8151611e3a81612735565b60008060408385031215611e6f578081fd5b8235611e7a81612735565b91506020830135611e8a81612735565b809150509250929050565b600080600060608486031215611ea9578081fd5b8335611eb481612735565b92506020840135611ec481612735565b91506040840135611ed481612735565b809150509250925092565b60008060408385031215611ef1578182fd5b8235611efc81612735565b946020939093013593505050565b60008060008060808587031215611f1f578081fd5b8435611f2a81612735565b935060208501359250604085013567ffffffffffffffff80821115611f4d578283fd5b611f5988838901611db5565b93506060870135915080821115611f6e578283fd5b50611f7b87828801611db5565b91505092959194509250565b60008060008060808587031215611f9c578384fd5b843567ffffffffffffffff80821115611fb3578586fd5b818701915087601f830112611fc6578586fd5b8135611fd4611d0d826126e5565b80828252602080830192508086018c828387028901011115611ff4578a8bfd5b8a96505b8487101561201f57803561200b81612735565b845260019690960195928101928101611ff8565b509098508901359350505080821115612036578485fd5b61204288838901611d57565b94506040870135915080821115612057578384fd5b61206388838901611cef565b93506060870135915080821115612078578283fd5b50611f7b87828801611cef565b600060208284031215612096578081fd5b81518015158114611e3a578182fd5b6000602082840312156120b6578081fd5b813561ffff81168114611e3a578182fd5b6000602082840312156120d8578081fd5b5035919050565b6000602082840312156120f0578081fd5b5051919050565b7fffffffff00000000000000000000000000000000000000000000000000000000831681528151600090612132816004850160208701612705565b919091016004019392505050565b60008251612152818460208701612705565b9190910192915050565b6001600160a01b0391909116815260200190565b901515815260200190565b600060208252825180602084015261219a816040850160208701612705565b601f01601f19169190910160400192915050565b6020808252600e908201527f73616d652d636f6c6c6563746f72000000000000000000000000000000000000604082015260600190565b6020808252600f908201527f73616d652d666f756e6465724665650000000000000000000000000000000000604082015260600190565b60208082526010908201527f4e6f7420612076616c696420706f6f6c00000000000000000000000000000000604082015260600190565b60208082526014908201527f5a65726f20737570706c79207265717569726564000000000000000000000000604082015260600190565b60208082526022908201527f50726f706f736564206f776e657220697320746865207a65726f206164647265604082015261737360f01b606082015260800190565b60208082526018908201527f696e76616c69642d73747261746567792d616464726573730000000000000000604082015260600190565b6020808252600d908201527f73616d652d6672696374696f6e00000000000000000000000000000000000000604082015260600190565b6020808252600c908201527f696e76616c69642d706f6f6c0000000000000000000000000000000000000000604082015260600190565b6020808252601a908201527f77697468647261772d6665652d6c696d69742d72656163686564000000000000604082015260600190565b60208082526011908201527f73616d652d77697468647261772d666565000000000000000000000000000000604082015260600190565b60208082526012908201527f73616d652d706f6f6c2d73747261746567790000000000000000000000000000604082015260600190565b6020808252601a908201527f73747261746567792d69732d6e6f742d75706772616461626c65000000000000604082015260600190565b6020808252818101527f4f776e61626c653a2063616c6c6572206973206e6f7420746865206f776e6572604082015260600190565b60208082526014908201527f466565436f6c6c6563746f722d6e6f742d736574000000000000000000000000604082015260600190565b60208082526011908201527f696e76616c69642d636f6c6c6563746f72000000000000000000000000000000604082015260600190565b60208082526014908201527f4d7573742070726f7669646520616374696f6e73000000000000000000000000604082015260600190565b60208082526019908201527f5472616e73616374696f6e2064617461206d69736d6174636800000000000000604082015260600190565b60208082526011908201527f466565206c696d69742072656163686564000000000000000000000000000000604082015260600190565b6020808252600a908201527f77726f6e672d706f6f6c00000000000000000000000000000000000000000000604082015260600190565b60208082526014908201527f466565436f6c6c6563746f72206e6f7420736574000000000000000000000000604082015260600190565b6020808252601f908201527f5472616e73616374696f6e20657865637574696f6e2072657665727465642e00604082015260600190565b60208082526015908201527f666f756e6465724665652d61626f76652d313030250000000000000000000000604082015260600190565b6020808252818101527f43616c6c6572206973206e6f74207468652070726f706f736564206f776e6572604082015260600190565b61ffff91909116815260200190565b90815260200190565b60405181810167ffffffffffffffff811182821017156126dd57600080fd5b604052919050565b600067ffffffffffffffff8211156126fb578081fd5b5060209081020190565b60005b83811015612720578181015183820152602001612708565b8381111561272f576000848401525b50505050565b6001600160a01b038116811461274a57600080fd5b5056fea26469706673582212207b41f2d939414794abd01a22047157686f4757b34b9db7a095787619d37fb02d64736f6c634300060c0033",
  "devdoc": {
    "kind": "dev",
    "methods": {
      "acceptOwnership()": {
        "details": "Allows proposed owner to accept ownership of the contract."
      },
      "addPool(address)": {
        "details": "Add new pool in vesper system",
        "params": {
          "_pool": "Address of new pool"
        }
      },
      "executeTransaction(address,uint256,string,bytes)": {
        "details": "Execute transaction in given target contract",
        "params": {
          "data": "Encoded data for function call",
          "signature": "Signature of function in target contract",
          "target": "Address of target contract",
          "value": "Ether amount to transfer"
        }
      },
      "executeTransactions(address[],uint256[],string[],bytes[])": {
        "details": "Execute multiple transactions."
      },
      "owner()": {
        "details": "Returns the address of the current owner."
      },
      "removePool(address)": {
        "details": "Remove pool from vesper system",
        "params": {
          "_pool": "Address of pool to be removed"
        }
      },
      "renounceOwnership()": {
        "details": "Leaves the contract without owner. It will not be possible to call `onlyOwner` functions anymore. Can only be called by the current owner. NOTE: Renouncing ownership will leave the contract without an owner, thereby removing any functionality that is only available to the owner."
      },
      "transferOwnership(address)": {
        "details": "Initiate transfer ownership of the contract to a new account (`proposedOwner`). Can only be called by the current owner. Current owner will still be owner until proposed owner accept ownership.",
        "params": {
          "proposedOwner": "proposed owner address"
        }
      }
    },
    "version": 1
  },
  "userdoc": {
    "kind": "user",
    "methods": {},
    "version": 1
  },
  "storageLayout": {
    "storage": [
      {
        "astId": 4112,
        "contract": "contracts/Controller.sol:Controller",
        "label": "_owner",
        "offset": 0,
        "slot": "0",
        "type": "t_address"
      },
      {
        "astId": 4218,
        "contract": "contracts/Controller.sol:Controller",
        "label": "_proposedOwner",
        "offset": 0,
        "slot": "1",
        "type": "t_address"
      },
      {
        "astId": 3405,
        "contract": "contracts/Controller.sol:Controller",
        "label": "withdrawFee",
        "offset": 0,
        "slot": "2",
        "type": "t_mapping(t_address,t_uint256)"
      },
      {
        "astId": 3409,
        "contract": "contracts/Controller.sol:Controller",
        "label": "interestFee",
        "offset": 0,
        "slot": "3",
        "type": "t_mapping(t_address,t_uint256)"
      },
      {
        "astId": 3413,
        "contract": "contracts/Controller.sol:Controller",
        "label": "feeCollector",
        "offset": 0,
        "slot": "4",
        "type": "t_mapping(t_address,t_address)"
      },
      {
        "astId": 3417,
        "contract": "contracts/Controller.sol:Controller",
        "label": "rebalanceFriction",
        "offset": 0,
        "slot": "5",
        "type": "t_mapping(t_address,t_uint256)"
      },
      {
        "astId": 3421,
        "contract": "contracts/Controller.sol:Controller",
        "label": "strategy",
        "offset": 0,
        "slot": "6",
        "type": "t_mapping(t_address,t_address)"
      },
      {
        "astId": 3425,
        "contract": "contracts/Controller.sol:Controller",
        "label": "poolRewards",
        "offset": 0,
        "slot": "7",
        "type": "t_mapping(t_address,t_address)"
      },
      {
        "astId": 3427,
        "contract": "contracts/Controller.sol:Controller",
        "label": "aaveReferralCode",
        "offset": 0,
        "slot": "8",
        "type": "t_uint16"
      },
      {
        "astId": 3429,
        "contract": "contracts/Controller.sol:Controller",
        "label": "founderVault",
        "offset": 2,
        "slot": "8",
        "type": "t_address"
      },
      {
        "astId": 3432,
        "contract": "contracts/Controller.sol:Controller",
        "label": "founderFee",
        "offset": 0,
        "slot": "9",
        "type": "t_uint256"
      },
      {
        "astId": 3434,
        "contract": "contracts/Controller.sol:Controller",
        "label": "treasuryPool",
        "offset": 0,
        "slot": "10",
        "type": "t_address"
      },
      {
        "astId": 3436,
        "contract": "contracts/Controller.sol:Controller",
        "label": "uniswapRouter",
        "offset": 0,
        "slot": "11",
        "type": "t_address"
      }
    ],
    "types": {
      "t_address": {
        "encoding": "inplace",
        "label": "address",
        "numberOfBytes": "20"
      },
      "t_mapping(t_address,t_address)": {
        "encoding": "mapping",
        "key": "t_address",
        "label": "mapping(address => address)",
        "numberOfBytes": "32",
        "value": "t_address"
      },
      "t_mapping(t_address,t_uint256)": {
        "encoding": "mapping",
        "key": "t_address",
        "label": "mapping(address => uint256)",
        "numberOfBytes": "32",
        "value": "t_uint256"
      },
      "t_uint16": {
        "encoding": "inplace",
        "label": "uint16",
        "numberOfBytes": "2"
      },
      "t_uint256": {
        "encoding": "inplace",
        "label": "uint256",
        "numberOfBytes": "32"
      }
    }
  }
}