{
  "address": "0x0E801D84Fa97b50751Dbf25036d067dCf18858bF",
  "abi": [
    {
      "inputs": [
        {
          "internalType": "address",
          "name": "baseToken",
          "type": "address"
        },
        {
          "internalType": "address",
          "name": "rewardTreasury",
          "type": "address"
        },
        {
          "internalType": "address",
          "name": "portfolioRegistry",
          "type": "address"
        }
      ],
      "stateMutability": "nonpayable",
      "type": "constructor"
    },
    {
      "inputs": [
        {
          "internalType": "address",
          "name": "account",
          "type": "address"
        }
      ],
      "name": "discountRateOf",
      "outputs": [
        {
          "internalType": "uint256",
          "name": "",
          "type": "uint256"
        }
      ],
      "stateMutability": "view",
      "type": "function"
    },
    {
      "inputs": [
        {
          "internalType": "address",
          "name": "account",
          "type": "address"
        }
      ],
      "name": "interestRateOf",
      "outputs": [
        {
          "internalType": "uint256",
          "name": "",
          "type": "uint256"
        }
      ],
      "stateMutability": "view",
      "type": "function"
    },
    {
      "inputs": [
        {
          "internalType": "address",
          "name": "account",
          "type": "address"
        }
      ],
      "name": "loyaltyTierOf",
      "outputs": [
        {
          "internalType": "enum ILoyaltyProgram.LoyaltyTier",
          "name": "",
          "type": "uint8"
        }
      ],
      "stateMutability": "view",
      "type": "function"
    },
    {
      "inputs": [
        {
          "internalType": "address",
          "name": "account",
          "type": "address"
        }
      ],
      "name": "rewardRateOf",
      "outputs": [
        {
          "internalType": "uint256",
          "name": "",
          "type": "uint256"
        }
      ],
      "stateMutability": "view",
      "type": "function"
    }
  ],
  "transactionHash": "0x2b9743a95ddeaa488415810fdcbe00724b9413631e36b4cd7f356a06eb46c665",
  "args": [
    "0x70e0bA845a1A0F2DA3359C97E0285013525FFC49",
    "0x99bbA657f2BbC93c02D617f8bA121cB8Fc104Acf",
    "0x4826533B4897376654Bb4d4AD88B7faFD0C98528"
  ],
  "solcInputHash": "6f5dcc333362b8d1a1fec4fd45f94e5f",
  "bytecode": "0x608060405234801561001057600080fd5b5060405161025f38038061025f83398101604081905261002f9161008d565b600080546001600160a01b039485166001600160a01b0319918216179091556001805493851693821693909317909255600280549190931691161790556100cf565b80516001600160a01b038116811461008857600080fd5b919050565b6000806000606084860312156100a1578283fd5b6100aa84610071565b92506100b860208501610071565b91506100c660408501610071565b90509250925092565b610181806100de6000396000f3fe608060405234801561001057600080fd5b506004361061004c5760003560e01c8063255f9983146100515780635b09c8761461007a57806376e195e51461008d578063e13052b1146100ad575b600080fd5b61006461005f3660046100df565b6100c0565b6040516100719190610142565b60405180910390f35b6100646100883660046100df565b6100c9565b6100a061009b3660046100df565b6100d1565b604051610071919061011a565b6100646100bb3660046100df565b6100d7565b6107d05b919050565b6105dc6100c4565b50600390565b6101c26100c4565b6000602082840312156100f0578081fd5b813573ffffffffffffffffffffffffffffffffffffffff81168114610113578182fd5b9392505050565b602081016004831061013c57634e487b7160e01b600052602160045260246000fd5b91905290565b9081526020019056fea2646970667358221220f10c2e3ccab06179f017669633111be08802ad5ab8a1e3edfda0bf335146158664736f6c63430008000033",
  "devdoc": {
    "kind": "dev",
    "methods": {},
    "version": 1
  },
  "userdoc": {
    "kind": "user",
    "methods": {
      "loyaltyTierOf(address)": {
        "notice": "currently there is no token price.  for the beginning all accounts are in manager tier."
      }
    },
    "version": 1
  },
  "storageLayout": {
    "storage": [
      {
        "astId": 1865,
        "contract": "contracts/LoyaltyProgram.sol:LoyaltyProgram",
        "label": "_baseToken",
        "offset": 0,
        "slot": "0",
        "type": "t_contract(IERC20)826"
      },
      {
        "astId": 1868,
        "contract": "contracts/LoyaltyProgram.sol:LoyaltyProgram",
        "label": "_rewardTreasury",
        "offset": 0,
        "slot": "1",
        "type": "t_contract(IRewardTreasury)2168"
      },
      {
        "astId": 1871,
        "contract": "contracts/LoyaltyProgram.sol:LoyaltyProgram",
        "label": "_portfolioRegistry",
        "offset": 0,
        "slot": "2",
        "type": "t_contract(IPortfolioRegistry)2158"
      }
    ],
    "types": {
      "t_contract(IERC20)826": {
        "encoding": "inplace",
        "label": "contract IERC20",
        "numberOfBytes": "20"
      },
      "t_contract(IPortfolioRegistry)2158": {
        "encoding": "inplace",
        "label": "contract IPortfolioRegistry",
        "numberOfBytes": "20"
      },
      "t_contract(IRewardTreasury)2168": {
        "encoding": "inplace",
        "label": "contract IRewardTreasury",
        "numberOfBytes": "20"
      }
    }
  }
}