{
  "address": "0xc351628EB244ec633d5f21fBD6621e1a683B1181",
  "abi": [
    {
      "inputs": [
        {
          "internalType": "address",
          "name": "baseToken",
          "type": "address"
        },
        {
          "internalType": "address",
          "name": "rewardTreasury",
          "type": "address"
        },
        {
          "internalType": "address",
          "name": "loyaltyProgram",
          "type": "address"
        }
      ],
      "stateMutability": "nonpayable",
      "type": "constructor"
    },
    {
      "anonymous": false,
      "inputs": [
        {
          "indexed": true,
          "internalType": "address",
          "name": "owner",
          "type": "address"
        },
        {
          "indexed": true,
          "internalType": "address",
          "name": "spender",
          "type": "address"
        },
        {
          "indexed": false,
          "internalType": "uint256",
          "name": "value",
          "type": "uint256"
        }
      ],
      "name": "Approval",
      "type": "event"
    },
    {
      "anonymous": false,
      "inputs": [
        {
          "indexed": true,
          "internalType": "address",
          "name": "account",
          "type": "address"
        },
        {
          "indexed": false,
          "internalType": "uint256",
          "name": "amount",
          "type": "uint256"
        }
      ],
      "name": "Claimed",
      "type": "event"
    },
    {
      "anonymous": false,
      "inputs": [
        {
          "indexed": true,
          "internalType": "address",
          "name": "previousOwner",
          "type": "address"
        },
        {
          "indexed": true,
          "internalType": "address",
          "name": "newOwner",
          "type": "address"
        }
      ],
      "name": "OwnershipTransferred",
      "type": "event"
    },
    {
      "anonymous": false,
      "inputs": [
        {
          "indexed": false,
          "internalType": "address",
          "name": "account",
          "type": "address"
        }
      ],
      "name": "Paused",
      "type": "event"
    },
    {
      "anonymous": false,
      "inputs": [
        {
          "indexed": true,
          "internalType": "address",
          "name": "account",
          "type": "address"
        },
        {
          "indexed": false,
          "internalType": "uint256",
          "name": "amount",
          "type": "uint256"
        }
      ],
      "name": "Staked",
      "type": "event"
    },
    {
      "anonymous": false,
      "inputs": [
        {
          "indexed": true,
          "internalType": "address",
          "name": "from",
          "type": "address"
        },
        {
          "indexed": true,
          "internalType": "address",
          "name": "to",
          "type": "address"
        },
        {
          "indexed": false,
          "internalType": "uint256",
          "name": "value",
          "type": "uint256"
        }
      ],
      "name": "Transfer",
      "type": "event"
    },
    {
      "anonymous": false,
      "inputs": [
        {
          "indexed": false,
          "internalType": "address",
          "name": "account",
          "type": "address"
        }
      ],
      "name": "Unpaused",
      "type": "event"
    },
    {
      "anonymous": false,
      "inputs": [
        {
          "indexed": true,
          "internalType": "address",
          "name": "account",
          "type": "address"
        },
        {
          "indexed": false,
          "internalType": "uint256",
          "name": "amount",
          "type": "uint256"
        }
      ],
      "name": "Withdrawn",
      "type": "event"
    },
    {
      "inputs": [
        {
          "internalType": "address",
          "name": "owner",
          "type": "address"
        },
        {
          "internalType": "address",
          "name": "spender",
          "type": "address"
        }
      ],
      "name": "allowance",
      "outputs": [
        {
          "internalType": "uint256",
          "name": "",
          "type": "uint256"
        }
      ],
      "stateMutability": "view",
      "type": "function"
    },
    {
      "inputs": [
        {
          "internalType": "address",
          "name": "spender",
          "type": "address"
        },
        {
          "internalType": "uint256",
          "name": "amount",
          "type": "uint256"
        }
      ],
      "name": "approve",
      "outputs": [
        {
          "internalType": "bool",
          "name": "",
          "type": "bool"
        }
      ],
      "stateMutability": "nonpayable",
      "type": "function"
    },
    {
      "inputs": [
        {
          "internalType": "address",
          "name": "account",
          "type": "address"
        }
      ],
      "name": "balanceOf",
      "outputs": [
        {
          "internalType": "uint256",
          "name": "",
          "type": "uint256"
        }
      ],
      "stateMutability": "view",
      "type": "function"
    },
    {
      "inputs": [],
      "name": "decimals",
      "outputs": [
        {
          "internalType": "uint8",
          "name": "",
          "type": "uint8"
        }
      ],
      "stateMutability": "view",
      "type": "function"
    },
    {
      "inputs": [
        {
          "internalType": "address",
          "name": "spender",
          "type": "address"
        },
        {
          "internalType": "uint256",
          "name": "subtractedValue",
          "type": "uint256"
        }
      ],
      "name": "decreaseAllowance",
      "outputs": [
        {
          "internalType": "bool",
          "name": "",
          "type": "bool"
        }
      ],
      "stateMutability": "nonpayable",
      "type": "function"
    },
    {
      "inputs": [],
      "name": "getChainId",
      "outputs": [
        {
          "internalType": "uint256",
          "name": "",
          "type": "uint256"
        }
      ],
      "stateMutability": "view",
      "type": "function"
    },
    {
      "inputs": [
        {
          "internalType": "address",
          "name": "spender",
          "type": "address"
        },
        {
          "internalType": "uint256",
          "name": "addedValue",
          "type": "uint256"
        }
      ],
      "name": "increaseAllowance",
      "outputs": [
        {
          "internalType": "bool",
          "name": "",
          "type": "bool"
        }
      ],
      "stateMutability": "nonpayable",
      "type": "function"
    },
    {
      "inputs": [],
      "name": "name",
      "outputs": [
        {
          "internalType": "string",
          "name": "",
          "type": "string"
        }
      ],
      "stateMutability": "view",
      "type": "function"
    },
    {
      "inputs": [],
      "name": "owner",
      "outputs": [
        {
          "internalType": "address",
          "name": "",
          "type": "address"
        }
      ],
      "stateMutability": "view",
      "type": "function"
    },
    {
      "inputs": [],
      "name": "paused",
      "outputs": [
        {
          "internalType": "bool",
          "name": "",
          "type": "bool"
        }
      ],
      "stateMutability": "view",
      "type": "function"
    },
    {
      "inputs": [],
      "name": "renounceOwnership",
      "outputs": [],
      "stateMutability": "nonpayable",
      "type": "function"
    },
    {
      "inputs": [
        {
          "internalType": "uint256",
          "name": "amount",
          "type": "uint256"
        }
      ],
      "name": "stake",
      "outputs": [],
      "stateMutability": "nonpayable",
      "type": "function"
    },
    {
      "inputs": [],
      "name": "symbol",
      "outputs": [
        {
          "internalType": "string",
          "name": "",
          "type": "string"
        }
      ],
      "stateMutability": "view",
      "type": "function"
    },
    {
      "inputs": [],
      "name": "totalSupply",
      "outputs": [
        {
          "internalType": "uint256",
          "name": "",
          "type": "uint256"
        }
      ],
      "stateMutability": "view",
      "type": "function"
    },
    {
      "inputs": [
        {
          "internalType": "address",
          "name": "recipient",
          "type": "address"
        },
        {
          "internalType": "uint256",
          "name": "amount",
          "type": "uint256"
        }
      ],
      "name": "transfer",
      "outputs": [
        {
          "internalType": "bool",
          "name": "",
          "type": "bool"
        }
      ],
      "stateMutability": "nonpayable",
      "type": "function"
    },
    {
      "inputs": [
        {
          "internalType": "address",
          "name": "sender",
          "type": "address"
        },
        {
          "internalType": "address",
          "name": "recipient",
          "type": "address"
        },
        {
          "internalType": "uint256",
          "name": "amount",
          "type": "uint256"
        }
      ],
      "name": "transferFrom",
      "outputs": [
        {
          "internalType": "bool",
          "name": "",
          "type": "bool"
        }
      ],
      "stateMutability": "nonpayable",
      "type": "function"
    },
    {
      "inputs": [
        {
          "internalType": "address",
          "name": "newOwner",
          "type": "address"
        }
      ],
      "name": "transferOwnership",
      "outputs": [],
      "stateMutability": "nonpayable",
      "type": "function"
    },
    {
      "inputs": [
        {
          "internalType": "uint256",
          "name": "amount",
          "type": "uint256"
        }
      ],
      "name": "withdraw",
      "outputs": [],
      "stateMutability": "nonpayable",
      "type": "function"
    }
  ],
  "transactionHash": "0x1f41ad4861748b3041f4b7f02a68fc8afb14819f514e4153b8514801c6ab9fb6",
  "args": [
    "0xCD8a1C3ba11CF5ECfa6267617243239504a98d90",
    "0x2bdCC0de6bE1f7D2ee689a0342D76F52E8EFABa3",
    "0x7969c5eD335650692Bc04293B07F5BF2e7A673C0"
  ],
  "solcInputHash": "2868fcb4029494faee88182927e004e8",
  "bytecode": "0x60806040523480156200001157600080fd5b5060405162001ad238038062001ad2833981016040819052620000349162000229565b604080518082018252601181527029ba30b5b2b22830bcb1b2b92a37b5b2b760791b60208083019182528351808501909452600484526339a821a960e11b908401528151919291620000899160039162000166565b5080516200009f90600490602084019062000166565b50506001600555506006805460ff19169055620000c5620000bf62000108565b6200010c565b600780546001600160a01b039485166001600160a01b031991821617909155600880549385169382169390931790925560098054919093169116179055620002af565b3390565b600680546001600160a01b03838116610100818102610100600160a81b031985161790945560405193909204169182907f8be0079c531659141344cd1fd0a4f28419497f9722a3daafe3b4186f6b6457e090600090a35050565b828054620001749062000272565b90600052602060002090601f016020900481019282620001985760008555620001e3565b82601f10620001b357805160ff1916838001178555620001e3565b82800160010185558215620001e3579182015b82811115620001e3578251825591602001919060010190620001c6565b50620001f1929150620001f5565b5090565b5b80821115620001f15760008155600101620001f6565b80516001600160a01b03811681146200022457600080fd5b919050565b6000806000606084860312156200023e578283fd5b62000249846200020c565b925062000259602085016200020c565b915062000269604085016200020c565b90509250925092565b6002810460018216806200028757607f821691505b60208210811415620002a957634e487b7160e01b600052602260045260246000fd5b50919050565b61181380620002bf6000396000f3fe608060405234801561001057600080fd5b50600436106101365760003560e01c806370a08231116100b2578063a457c2d711610081578063a9059cbb11610066578063a9059cbb1461024c578063dd62ed3e1461025f578063f2fde38b1461027257610136565b8063a457c2d714610226578063a694fc3a1461023957610136565b806370a08231146101ee578063715018a6146102015780638da5cb5b1461020957806395d89b411461021e57610136565b80632e1a7d4d116101095780633408e470116100ee5780633408e470146101cb57806339509351146101d35780635c975abb146101e657610136565b80632e1a7d4d146101a1578063313ce567146101b657610136565b806306fdde031461013b578063095ea7b31461015957806318160ddd1461017957806323b872dd1461018e575b600080fd5b610143610285565b604051610150919061111b565b60405180910390f35b61016c610167366004611043565b610317565b6040516101509190611110565b610181610334565b60405161015091906116db565b61016c61019c366004611008565b61033a565b6101b46101af36600461108c565b6103d5565b005b6101be61057a565b60405161015091906116e4565b61018161057f565b61016c6101e1366004611043565b610583565b61016c6105d7565b6101816101fc366004610fbc565b6105e0565b6101b46105ff565b61021161064a565b60405161015091906110d8565b61014361065e565b61016c610234366004611043565b61066d565b6101b461024736600461108c565b6106e6565b61016c61025a366004611043565b6108a2565b61018161026d366004610fd6565b6108b6565b6101b4610280366004610fbc565b6108e1565b6060600380546102949061178c565b80601f01602080910402602001604051908101604052809291908181526020018280546102c09061178c565b801561030d5780601f106102e25761010080835404028352916020019161030d565b820191906000526020600020905b8154815290600101906020018083116102f057829003601f168201915b5050505050905090565b600061032b610324610952565b8484610956565b50600192915050565b60025490565b6000610347848484610a0a565b6001600160a01b038416600090815260016020526040812081610368610952565b6001600160a01b03166001600160a01b03168152602001908152602001600020549050828110156103b45760405162461bcd60e51b81526004016103ab906113d1565b60405180910390fd5b6103c8856103c0610952565b858403610956565b60019150505b9392505050565b600260055414156103f85760405162461bcd60e51b81526004016103ab90611610565b60026005556104056105d7565b156104225760405162461bcd60e51b81526004016103ab9061139a565b600081116104425760405162461bcd60e51b81526004016103ab906112a9565b600061044c610334565b6007546040516370a0823160e01b81529192506000916001600160a01b03909116906370a08231906104829030906004016110d8565b60206040518083038186803b15801561049a57600080fd5b505afa1580156104ae573d6000803e3d6000fd5b505050506040513d601f19601f820116820180604052508101906104d291906110a4565b905060006104ea836104e48685610b34565b90610b40565b90506000811161050c5760405162461bcd60e51b81526004016103ab906111d3565b6105163385610b4c565b60075461052e906001600160a01b0316303384610c3e565b336001600160a01b03167f7084f5476618d8e60b11ef0d7d3f06914655adb8793e28ff7f018d4c76d505d58560405161056791906116db565b60405180910390a2505060016005555050565b601290565b4690565b600061032b610590610952565b84846001600061059e610952565b6001600160a01b03908116825260208083019390935260409182016000908120918b16815292529020546105d291906116f2565b610956565b60065460ff1690565b6001600160a01b0381166000908152602081905260409020545b919050565b610607610952565b6001600160a01b031661061861064a565b6001600160a01b03161461063e5760405162461bcd60e51b81526004016103ab9061142e565b6106486000610cc3565b565b60065461010090046001600160a01b031690565b6060600480546102949061178c565b6000806001600061067c610952565b6001600160a01b03908116825260208083019390935260409182016000908120918816815292529020549050828110156106c85760405162461bcd60e51b81526004016103ab90611647565b6106dc6106d3610952565b85858403610956565b5060019392505050565b600260055414156107095760405162461bcd60e51b81526004016103ab90611610565b60026005556107166105d7565b156107335760405162461bcd60e51b81526004016103ab9061139a565b600081116107535760405162461bcd60e51b81526004016103ab906112a9565b6007546040516370a0823160e01b81526000916001600160a01b0316906370a08231906107849030906004016110d8565b60206040518083038186803b15801561079c57600080fd5b505afa1580156107b0573d6000803e3d6000fd5b505050506040513d601f19601f820116820180604052508101906107d491906110a4565b9050818110156107f65760405162461bcd60e51b81526004016103ab906114a4565b6000610800610334565b905080158061080d575081155b156108215761081c3384610d34565b61083f565b6000610831836104e48685610b34565b905061083d3382610d34565b505b600754610857906001600160a01b0316333086610c3e565b336001600160a01b03167f9e71bc8eea02a63969f509818f2dafb9254532904319f9dbda79b67bd34a5f3d8460405161089091906116db565b60405180910390a25050600160055550565b600061032b6108af610952565b8484610a0a565b6001600160a01b03918216600090815260016020908152604080832093909416825291909152205490565b6108e9610952565b6001600160a01b03166108fa61064a565b6001600160a01b0316146109205760405162461bcd60e51b81526004016103ab9061142e565b6001600160a01b0381166109465760405162461bcd60e51b81526004016103ab9061120a565b61094f81610cc3565b50565b3390565b6001600160a01b03831661097c5760405162461bcd60e51b81526004016103ab90611538565b6001600160a01b0382166109a25760405162461bcd60e51b81526004016103ab90611267565b6001600160a01b0380841660008181526001602090815260408083209487168084529490915290819020849055517f8c5be1e5ebec7d5bd14f71427d1e84f3dd0314c0f7b2291e5b200ac8c7c3b925906109fd9085906116db565b60405180910390a3505050565b6001600160a01b038316610a305760405162461bcd60e51b81526004016103ab906114db565b6001600160a01b038216610a565760405162461bcd60e51b81526004016103ab9061114e565b610a61838383610c39565b6001600160a01b03831660009081526020819052604090205481811015610a9a5760405162461bcd60e51b81526004016103ab906112e0565b6001600160a01b03808516600090815260208190526040808220858503905591851681529081208054849290610ad19084906116f2565b92505081905550826001600160a01b0316846001600160a01b03167fddf252ad1be2c89b69c2b068fc378daa952ba7f163c4a11628f55a4df523b3ef84604051610b1b91906116db565b60405180910390a3610b2e848484610c39565b50505050565b60006103ce828461172a565b60006103ce828461170a565b6001600160a01b038216610b725760405162461bcd60e51b81526004016103ab90611463565b610b7e82600083610c39565b6001600160a01b03821660009081526020819052604090205481811015610bb75760405162461bcd60e51b81526004016103ab90611191565b6001600160a01b0383166000908152602081905260408120838303905560028054849290610be6908490611749565b90915550506040516000906001600160a01b038516907fddf252ad1be2c89b69c2b068fc378daa952ba7f163c4a11628f55a4df523b3ef90610c299086906116db565b60405180910390a3610c39836000845b505050565b610b2e846323b872dd60e01b858585604051602401610c5f939291906110ec565b60408051601f198184030181529190526020810180517bffffffffffffffffffffffffffffffffffffffffffffffffffffffff167fffffffff0000000000000000000000000000000000000000000000000000000090931692909217909152610e00565b600680546001600160a01b038381166101008181027fffffffffffffffffffffff0000000000000000000000000000000000000000ff85161790945560405193909204169182907f8be0079c531659141344cd1fd0a4f28419497f9722a3daafe3b4186f6b6457e090600090a35050565b6001600160a01b038216610d5a5760405162461bcd60e51b81526004016103ab906116a4565b610d6660008383610c39565b8060026000828254610d7891906116f2565b90915550506001600160a01b03821660009081526020819052604081208054839290610da59084906116f2565b90915550506040516001600160a01b038316906000907fddf252ad1be2c89b69c2b068fc378daa952ba7f163c4a11628f55a4df523b3ef90610de89085906116db565b60405180910390a3610dfc60008383610c39565b5050565b6000610e55826040518060400160405280602081526020017f5361666545524332303a206c6f772d6c6576656c2063616c6c206661696c6564815250856001600160a01b0316610e8f9092919063ffffffff16565b805190915015610c395780806020019051810190610e73919061106c565b610c395760405162461bcd60e51b81526004016103ab906115b3565b6060610e9e8484600085610ea6565b949350505050565b606082471015610ec85760405162461bcd60e51b81526004016103ab9061133d565b610ed185610f66565b610eed5760405162461bcd60e51b81526004016103ab9061157c565b600080866001600160a01b03168587604051610f0991906110bc565b60006040518083038185875af1925050503d8060008114610f46576040519150601f19603f3d011682016040523d82523d6000602084013e610f4b565b606091505b5091509150610f5b828286610f6c565b979650505050505050565b3b151590565b60608315610f7b5750816103ce565b825115610f8b5782518084602001fd5b8160405162461bcd60e51b81526004016103ab919061111b565b80356001600160a01b03811681146105fa57600080fd5b600060208284031215610fcd578081fd5b6103ce82610fa5565b60008060408385031215610fe8578081fd5b610ff183610fa5565b9150610fff60208401610fa5565b90509250929050565b60008060006060848603121561101c578081fd5b61102584610fa5565b925061103360208501610fa5565b9150604084013590509250925092565b60008060408385031215611055578182fd5b61105e83610fa5565b946020939093013593505050565b60006020828403121561107d578081fd5b815180151581146103ce578182fd5b60006020828403121561109d578081fd5b5035919050565b6000602082840312156110b5578081fd5b5051919050565b600082516110ce818460208701611760565b9190910192915050565b6001600160a01b0391909116815260200190565b6001600160a01b039384168152919092166020820152604081019190915260600190565b901515815260200190565b600060208252825180602084015261113a816040850160208701611760565b601f01601f19169190910160400192915050565b60208082526023908201527f45524332303a207472616e7366657220746f20746865207a65726f206164647260408201526265737360e81b606082015260800190565b60208082526022908201527f45524332303a206275726e20616d6f756e7420657863656564732062616c616e604082015261636560f01b606082015260800190565b60208082526013908201527f4e6f7468696e6720746f20776974686472617700000000000000000000000000604082015260600190565b60208082526026908201527f4f776e61626c653a206e6577206f776e657220697320746865207a65726f206160408201527f6464726573730000000000000000000000000000000000000000000000000000606082015260800190565b60208082526022908201527f45524332303a20617070726f766520746f20746865207a65726f206164647265604082015261737360f01b606082015260800190565b6020808252601d908201527f416d6f756e74206d7573742062652067726561746572207468616e2030000000604082015260600190565b60208082526026908201527f45524332303a207472616e7366657220616d6f756e742065786365656473206260408201527f616c616e63650000000000000000000000000000000000000000000000000000606082015260800190565b60208082526026908201527f416464726573733a20696e73756666696369656e742062616c616e636520666f60408201527f722063616c6c0000000000000000000000000000000000000000000000000000606082015260800190565b60208082526010908201527f5061757361626c653a2070617573656400000000000000000000000000000000604082015260600190565b60208082526028908201527f45524332303a207472616e7366657220616d6f756e742065786365656473206160408201527f6c6c6f77616e6365000000000000000000000000000000000000000000000000606082015260800190565b6020808252818101527f4f776e61626c653a2063616c6c6572206973206e6f7420746865206f776e6572604082015260600190565b60208082526021908201527f45524332303a206275726e2066726f6d20746865207a65726f206164647265736040820152607360f81b606082015260800190565b6020808252601f908201527f4e6f7420656e6f75676820746f6b656e7320696e207468652077616c6c657400604082015260600190565b60208082526025908201527f45524332303a207472616e736665722066726f6d20746865207a65726f20616460408201527f6472657373000000000000000000000000000000000000000000000000000000606082015260800190565b60208082526024908201527f45524332303a20617070726f76652066726f6d20746865207a65726f206164646040820152637265737360e01b606082015260800190565b6020808252601d908201527f416464726573733a2063616c6c20746f206e6f6e2d636f6e7472616374000000604082015260600190565b6020808252602a908201527f5361666545524332303a204552433230206f7065726174696f6e20646964206e60408201527f6f74207375636365656400000000000000000000000000000000000000000000606082015260800190565b6020808252601f908201527f5265656e7472616e637947756172643a207265656e7472616e742063616c6c00604082015260600190565b60208082526025908201527f45524332303a2064656372656173656420616c6c6f77616e63652062656c6f7760408201527f207a65726f000000000000000000000000000000000000000000000000000000606082015260800190565b6020808252601f908201527f45524332303a206d696e7420746f20746865207a65726f206164647265737300604082015260600190565b90815260200190565b60ff91909116815260200190565b60008219821115611705576117056117c7565b500190565b60008261172557634e487b7160e01b81526012600452602481fd5b500490565b6000816000190483118215151615611744576117446117c7565b500290565b60008282101561175b5761175b6117c7565b500390565b60005b8381101561177b578181015183820152602001611763565b83811115610b2e5750506000910152565b6002810460018216806117a057607f821691505b602082108114156117c157634e487b7160e01b600052602260045260246000fd5b50919050565b634e487b7160e01b600052601160045260246000fdfea264697066735822122044fcbf4d928dff79e90f355f5067270185f96021901e647aa046f1a3dd9bca6064736f6c63430008000033",
  "devdoc": {
    "kind": "dev",
    "methods": {
      "allowance(address,address)": {
        "details": "See {IERC20-allowance}."
      },
      "approve(address,uint256)": {
        "details": "See {IERC20-approve}. Requirements: - `spender` cannot be the zero address."
      },
      "balanceOf(address)": {
        "details": "See {IERC20-balanceOf}."
      },
      "decimals()": {
        "details": "Returns the number of decimals used to get its user representation. For example, if `decimals` equals `2`, a balance of `505` tokens should be displayed to a user as `5.05` (`505 / 10 ** 2`). Tokens usually opt for a value of 18, imitating the relationship between Ether and Wei. This is the value {ERC20} uses, unless this function is overridden; NOTE: This information is only used for _display_ purposes: it in no way affects any of the arithmetic of the contract, including {IERC20-balanceOf} and {IERC20-transfer}."
      },
      "decreaseAllowance(address,uint256)": {
        "details": "Atomically decreases the allowance granted to `spender` by the caller. This is an alternative to {approve} that can be used as a mitigation for problems described in {IERC20-approve}. Emits an {Approval} event indicating the updated allowance. Requirements: - `spender` cannot be the zero address. - `spender` must have allowance for the caller of at least `subtractedValue`."
      },
      "increaseAllowance(address,uint256)": {
        "details": "Atomically increases the allowance granted to `spender` by the caller. This is an alternative to {approve} that can be used as a mitigation for problems described in {IERC20-approve}. Emits an {Approval} event indicating the updated allowance. Requirements: - `spender` cannot be the zero address."
      },
      "name()": {
        "details": "Returns the name of the token."
      },
      "owner()": {
        "details": "Returns the address of the current owner."
      },
      "paused()": {
        "details": "Returns true if the contract is paused, and false otherwise."
      },
      "renounceOwnership()": {
        "details": "Leaves the contract without owner. It will not be possible to call `onlyOwner` functions anymore. Can only be called by the current owner. NOTE: Renouncing ownership will leave the contract without an owner, thereby removing any functionality that is only available to the owner."
      },
      "symbol()": {
        "details": "Returns the symbol of the token, usually a shorter version of the name."
      },
      "totalSupply()": {
        "details": "See {IERC20-totalSupply}."
      },
      "transfer(address,uint256)": {
        "details": "See {IERC20-transfer}. Requirements: - `recipient` cannot be the zero address. - the caller must have a balance of at least `amount`."
      },
      "transferFrom(address,address,uint256)": {
        "details": "See {IERC20-transferFrom}. Emits an {Approval} event indicating the updated allowance. This is not required by the EIP. See the note at the beginning of {ERC20}. Requirements: - `sender` and `recipient` cannot be the zero address. - `sender` must have a balance of at least `amount`. - the caller must have allowance for ``sender``'s tokens of at least `amount`."
      },
      "transferOwnership(address)": {
        "details": "Transfers ownership of the contract to a new account (`newOwner`). Can only be called by the current owner."
      }
    },
    "version": 1
  },
  "userdoc": {
    "kind": "user",
    "methods": {},
    "version": 1
  },
  "storageLayout": {
    "storage": [
      {
        "astId": 251,
        "contract": "contracts/staking/StakedPaycerToken.sol:StakedPaycerToken",
        "label": "_balances",
        "offset": 0,
        "slot": "0",
        "type": "t_mapping(t_address,t_uint256)"
      },
      {
        "astId": 257,
        "contract": "contracts/staking/StakedPaycerToken.sol:StakedPaycerToken",
        "label": "_allowances",
        "offset": 0,
        "slot": "1",
        "type": "t_mapping(t_address,t_mapping(t_address,t_uint256))"
      },
      {
        "astId": 259,
        "contract": "contracts/staking/StakedPaycerToken.sol:StakedPaycerToken",
        "label": "_totalSupply",
        "offset": 0,
        "slot": "2",
        "type": "t_uint256"
      },
      {
        "astId": 261,
        "contract": "contracts/staking/StakedPaycerToken.sol:StakedPaycerToken",
        "label": "_name",
        "offset": 0,
        "slot": "3",
        "type": "t_string_storage"
      },
      {
        "astId": 263,
        "contract": "contracts/staking/StakedPaycerToken.sol:StakedPaycerToken",
        "label": "_symbol",
        "offset": 0,
        "slot": "4",
        "type": "t_string_storage"
      },
      {
        "astId": 206,
        "contract": "contracts/staking/StakedPaycerToken.sol:StakedPaycerToken",
        "label": "_status",
        "offset": 0,
        "slot": "5",
        "type": "t_uint256"
      },
      {
        "astId": 121,
        "contract": "contracts/staking/StakedPaycerToken.sol:StakedPaycerToken",
        "label": "_paused",
        "offset": 0,
        "slot": "6",
        "type": "t_bool"
      },
      {
        "astId": 7,
        "contract": "contracts/staking/StakedPaycerToken.sol:StakedPaycerToken",
        "label": "_owner",
        "offset": 1,
        "slot": "6",
        "type": "t_address"
      },
      {
        "astId": 2384,
        "contract": "contracts/staking/StakedPaycerToken.sol:StakedPaycerToken",
        "label": "_baseToken",
        "offset": 0,
        "slot": "7",
        "type": "t_contract(IERC20)859"
      },
      {
        "astId": 2387,
        "contract": "contracts/staking/StakedPaycerToken.sol:StakedPaycerToken",
        "label": "_rewardTreasury",
        "offset": 0,
        "slot": "8",
        "type": "t_contract(IRewardTreasury)2210"
      },
      {
        "astId": 2390,
        "contract": "contracts/staking/StakedPaycerToken.sol:StakedPaycerToken",
        "label": "_loyaltyProgram",
        "offset": 0,
        "slot": "9",
        "type": "t_contract(ILoyaltyProgram)2190"
      }
    ],
    "types": {
      "t_address": {
        "encoding": "inplace",
        "label": "address",
        "numberOfBytes": "20"
      },
      "t_bool": {
        "encoding": "inplace",
        "label": "bool",
        "numberOfBytes": "1"
      },
      "t_contract(IERC20)859": {
        "encoding": "inplace",
        "label": "contract IERC20",
        "numberOfBytes": "20"
      },
      "t_contract(ILoyaltyProgram)2190": {
        "encoding": "inplace",
        "label": "contract ILoyaltyProgram",
        "numberOfBytes": "20"
      },
      "t_contract(IRewardTreasury)2210": {
        "encoding": "inplace",
        "label": "contract IRewardTreasury",
        "numberOfBytes": "20"
      },
      "t_mapping(t_address,t_mapping(t_address,t_uint256))": {
        "encoding": "mapping",
        "key": "t_address",
        "label": "mapping(address => mapping(address => uint256))",
        "numberOfBytes": "32",
        "value": "t_mapping(t_address,t_uint256)"
      },
      "t_mapping(t_address,t_uint256)": {
        "encoding": "mapping",
        "key": "t_address",
        "label": "mapping(address => uint256)",
        "numberOfBytes": "32",
        "value": "t_uint256"
      },
      "t_string_storage": {
        "encoding": "bytes",
        "label": "string",
        "numberOfBytes": "32"
      },
      "t_uint256": {
        "encoding": "inplace",
        "label": "uint256",
        "numberOfBytes": "32"
      }
    }
  }
}