{
  "address": "0x7bc06c482DEAd17c0e297aFbC32f6e63d3846650",
  "abi": [
    {
      "inputs": [
        {
          "internalType": "address",
          "name": "baseToken",
          "type": "address"
        },
        {
          "internalType": "address",
          "name": "rewardTreasury",
          "type": "address"
        },
        {
          "internalType": "address",
          "name": "loyaltyProgram",
          "type": "address"
        }
      ],
      "stateMutability": "nonpayable",
      "type": "constructor"
    },
    {
      "anonymous": false,
      "inputs": [
        {
          "indexed": true,
          "internalType": "address",
          "name": "account",
          "type": "address"
        },
        {
          "indexed": false,
          "internalType": "uint256",
          "name": "amount",
          "type": "uint256"
        }
      ],
      "name": "Claimed",
      "type": "event"
    },
    {
      "anonymous": false,
      "inputs": [
        {
          "indexed": true,
          "internalType": "address",
          "name": "previousOwner",
          "type": "address"
        },
        {
          "indexed": true,
          "internalType": "address",
          "name": "newOwner",
          "type": "address"
        }
      ],
      "name": "OwnershipTransferred",
      "type": "event"
    },
    {
      "anonymous": false,
      "inputs": [
        {
          "indexed": false,
          "internalType": "address",
          "name": "account",
          "type": "address"
        }
      ],
      "name": "Paused",
      "type": "event"
    },
    {
      "anonymous": false,
      "inputs": [
        {
          "indexed": true,
          "internalType": "address",
          "name": "account",
          "type": "address"
        },
        {
          "indexed": false,
          "internalType": "uint256",
          "name": "amount",
          "type": "uint256"
        },
        {
          "indexed": false,
          "internalType": "uint256",
          "name": "lockPeriod",
          "type": "uint256"
        }
      ],
      "name": "Staked",
      "type": "event"
    },
    {
      "anonymous": false,
      "inputs": [
        {
          "indexed": false,
          "internalType": "address",
          "name": "account",
          "type": "address"
        }
      ],
      "name": "Unpaused",
      "type": "event"
    },
    {
      "anonymous": false,
      "inputs": [
        {
          "indexed": true,
          "internalType": "address",
          "name": "account",
          "type": "address"
        },
        {
          "indexed": false,
          "internalType": "uint256",
          "name": "amount",
          "type": "uint256"
        }
      ],
      "name": "Withdrawn",
      "type": "event"
    },
    {
      "inputs": [],
      "name": "claim",
      "outputs": [],
      "stateMutability": "nonpayable",
      "type": "function"
    },
    {
      "inputs": [
        {
          "internalType": "address",
          "name": "account",
          "type": "address"
        }
      ],
      "name": "lastStakeTimeOf",
      "outputs": [
        {
          "internalType": "uint256",
          "name": "",
          "type": "uint256"
        }
      ],
      "stateMutability": "view",
      "type": "function"
    },
    {
      "inputs": [
        {
          "internalType": "address",
          "name": "account",
          "type": "address"
        }
      ],
      "name": "lastWithdrawTime",
      "outputs": [
        {
          "internalType": "uint256",
          "name": "",
          "type": "uint256"
        }
      ],
      "stateMutability": "view",
      "type": "function"
    },
    {
      "inputs": [],
      "name": "owner",
      "outputs": [
        {
          "internalType": "address",
          "name": "",
          "type": "address"
        }
      ],
      "stateMutability": "view",
      "type": "function"
    },
    {
      "inputs": [],
      "name": "paused",
      "outputs": [
        {
          "internalType": "bool",
          "name": "",
          "type": "bool"
        }
      ],
      "stateMutability": "view",
      "type": "function"
    },
    {
      "inputs": [],
      "name": "renounceOwnership",
      "outputs": [],
      "stateMutability": "nonpayable",
      "type": "function"
    },
    {
      "inputs": [
        {
          "internalType": "address",
          "name": "account",
          "type": "address"
        }
      ],
      "name": "rewardBalanceOf",
      "outputs": [
        {
          "internalType": "uint256",
          "name": "",
          "type": "uint256"
        }
      ],
      "stateMutability": "view",
      "type": "function"
    },
    {
      "inputs": [
        {
          "internalType": "uint256",
          "name": "amount",
          "type": "uint256"
        },
        {
          "internalType": "uint256",
          "name": "lockPeriod",
          "type": "uint256"
        }
      ],
      "name": "stake",
      "outputs": [],
      "stateMutability": "nonpayable",
      "type": "function"
    },
    {
      "inputs": [
        {
          "internalType": "address",
          "name": "account",
          "type": "address"
        }
      ],
      "name": "stakedBalanceOf",
      "outputs": [
        {
          "internalType": "uint256",
          "name": "",
          "type": "uint256"
        }
      ],
      "stateMutability": "view",
      "type": "function"
    },
    {
      "inputs": [],
      "name": "totalStakedBalances",
      "outputs": [
        {
          "internalType": "uint256",
          "name": "",
          "type": "uint256"
        }
      ],
      "stateMutability": "view",
      "type": "function"
    },
    {
      "inputs": [
        {
          "internalType": "address",
          "name": "newOwner",
          "type": "address"
        }
      ],
      "name": "transferOwnership",
      "outputs": [],
      "stateMutability": "nonpayable",
      "type": "function"
    },
    {
      "inputs": [],
      "name": "treasurySupply",
      "outputs": [
        {
          "internalType": "uint256",
          "name": "",
          "type": "uint256"
        }
      ],
      "stateMutability": "view",
      "type": "function"
    },
    {
      "inputs": [
        {
          "internalType": "uint256",
          "name": "amount",
          "type": "uint256"
        }
      ],
      "name": "withdraw",
      "outputs": [],
      "stateMutability": "nonpayable",
      "type": "function"
    }
  ],
  "transactionHash": "0x11ca2fd7793ce8cd2bd1a5a42453eab2d3944a95d569e8725aa92424add0f378",
  "args": [
    "0xCD8a1C3ba11CF5ECfa6267617243239504a98d90",
    "0x2bdCC0de6bE1f7D2ee689a0342D76F52E8EFABa3",
    "0x7969c5eD335650692Bc04293B07F5BF2e7A673C0"
  ],
  "solcInputHash": "777288f52b8790ab43dae41a3843b9e5",
  "bytecode": "0x6080604052600260065561016d6007553480156200001c57600080fd5b5060405162001710380380620017108339810160408190526200003f9162000120565b60016000819055805460ff19169055620000626200005c620000a5565b620000a9565b600280546001600160a01b039485166001600160a01b03199182161790915560038054938516938216939093179092556004805491909316911617905562000169565b3390565b600180546001600160a01b03838116610100818102610100600160a81b031985161790945560405193909204169182907f8be0079c531659141344cd1fd0a4f28419497f9722a3daafe3b4186f6b6457e090600090a35050565b80516001600160a01b03811681146200011b57600080fd5b919050565b60008060006060848603121562000135578283fd5b620001408462000103565b9250620001506020850162000103565b9150620001606040850162000103565b90509250925092565b61159780620001796000396000f3fe608060405234801561001057600080fd5b50600436106100df5760003560e01c80635c975abb1161008c5780637b0472f0116100665780637b0472f01461017d5780638da5cb5b14610190578063e964b644146101a5578063f2fde38b146101b8576100df565b80635c975abb146101585780635fc1a4b81461016d578063715018a614610175576100df565b806340d73f47116100bd57806340d73f47146101355780634e71d92d1461013d5780635175a7c914610145576100df565b80631031ec31146100e4578063167653911461010d5780632e1a7d4d14610120575b600080fd5b6100f76100f2366004610ee5565b6101cb565b60405161010491906113c1565b60405180910390f35b6100f761011b366004610ee5565b6101e6565b61013361012e366004610f2c565b610201565b005b6100f7610469565b61013361046f565b6100f7610153366004610ee5565b6105e6565b610160610601565b6040516101049190611016565b6100f761060a565b610133610697565b61013361018b366004610f5c565b6106e2565b610198610910565b6040516101049190610fc5565b6100f76101b3366004610ee5565b610924565b6101336101c6366004610ee5565b610b2c565b6001600160a01b03166000908152600c602052604090205490565b6001600160a01b031660009081526008602052604090205490565b6002600054141561022d5760405162461bcd60e51b81526004016102249061132d565b60405180910390fd5b600260005561023a610601565b156102575760405162461bcd60e51b81526004016102249061117e565b3361026181610924565b6001600160a01b038216600090815260096020526040902055816102975760405162461bcd60e51b8152600401610224906110b3565b816102a1336101e6565b10156102bf5760405162461bcd60e51b815260040161022490611364565b336000908152600a60205260409020541561032e57336000908152600b6020908152604080832054600a9092528220549091906102ff9062015180611410565b61030990836113d8565b90508042101561032b5760405162461bcd60e51b815260040161022490611299565b50505b60055461033b9083610b9d565b600555336000908152600a6020908152604080832083905560089091529020546103659083610b9d565b336000908152600860205260409081902091909155600254905163095ea7b360e01b81526001600160a01b039091169063095ea7b3906103ab9030908690600401610ffd565b602060405180830381600087803b1580156103c557600080fd5b505af11580156103d9573d6000803e3d6000fd5b505050506040513d601f19601f820116820180604052508101906103fd9190610f0c565b50600254610416906001600160a01b0316303385610bb0565b336000818152600c602052604090819020429055517f7084f5476618d8e60b11ef0d7d3f06914655adb8793e28ff7f018d4c76d505d5906104589085906113c1565b60405180910390a250506001600055565b60055490565b600260005414156104925760405162461bcd60e51b81526004016102249061132d565b600260005561049f610601565b156104bc5760405162461bcd60e51b81526004016102249061117e565b336104c681610924565b6001600160a01b038216600090815260096020526040808220929092553381522054806105055760405162461bcd60e51b8152600401610224906110b3565b8061050e61060a565b101561052c5760405162461bcd60e51b8152600401610224906111ea565b33600081815260096020526040808220919091556003549051635569f64b60e11b81526001600160a01b039091169163aad3ec969161057091908590600401610ffd565b600060405180830381600087803b15801561058a57600080fd5b505af115801561059e573d6000803e3d6000fd5b5050336000818152600d602052604090819020429055519092507fd8138f8a3f377c5259ca548e70e4c2de94f129f5a11036a15b69513cba2b426a91506104589084906113c1565b6001600160a01b03166000908152600b602052604090205490565b60015460ff1690565b6002546003546040516370a0823160e01b81526000926001600160a01b03908116926370a08231926106429290911690600401610fc5565b60206040518083038186803b15801561065a57600080fd5b505afa15801561066e573d6000803e3d6000fd5b505050506040513d601f19601f820116820180604052508101906106929190610f44565b905090565b61069f610c3b565b6001600160a01b03166106b0610910565b6001600160a01b0316146106d65760405162461bcd60e51b8152600401610224906111b5565b6106e06000610c3f565b565b600260005414156107055760405162461bcd60e51b81526004016102249061132d565b6002600055610712610601565b1561072f5760405162461bcd60e51b81526004016102249061117e565b3361073981610924565b6001600160a01b0382166000908152600960205260409020558261076f5760405162461bcd60e51b8152600401610224906110b3565b6002546040516370a0823160e01b815284916001600160a01b0316906370a082319061079f903390600401610fc5565b60206040518083038186803b1580156107b757600080fd5b505afa1580156107cb573d6000803e3d6000fd5b505050506040513d601f19601f820116820180604052508101906107ef9190610f44565b101561080d5760405162461bcd60e51b81526004016102249061122b565b600654821015801561082157506007548211155b61083d5760405162461bcd60e51b8152600401610224906110ea565b60055461084a9084610cb0565b600555336000908152600860205260409020546108679084610cb0565b33600090815260086020908152604080832093909355600a9052205461088d9083610cb0565b336000818152600a60205260409020919091556002546108ba916001600160a01b03909116903086610bb0565b336000818152600b602052604090819020429055517f1449c6dd7851abc30abf37f57715f492010519147cc2652fbc38202c18a6ee90906108fe90869086906113ca565b60405180910390a25050600160005550565b60015461010090046001600160a01b031690565b60048054604051632d84e43b60e11b815260009283926001600160a01b031691635b09c8769161095691879101610fc5565b60206040518083038186803b15801561096e57600080fd5b505afa158015610982573d6000803e3d6000fd5b505050506040513d601f19601f820116820180604052508101906109a69190610f44565b905060006109b3846101e6565b6001600160a01b0385166000908152600d6020526040812054919250906109f2576001600160a01b0385166000908152600b6020526040902054610a0c565b6001600160a01b0385166000908152600d60205260409020545b90506000610a1a824261142f565b90506000600182610a2c6064886113f0565b610a369087611410565b610a409190611410565b610a4a91906113f0565b9050610a6e6040518060600160405280602381526020016114ad6023913942610cbc565b610a906040518060600160405280602281526020016115406022913984610cbc565b610ab26040518060600160405280602281526020016114d06022913983610cbc565b610ad46040518060600160405280602781526020016114f26027913982610cbc565b610af66040518060600160405280602781526020016115196027913985610cbc565b610b2260405180606001604052806024815260200161148960249139610b1d6064886113f0565b610cbc565b9695505050505050565b610b34610c3b565b6001600160a01b0316610b45610910565b6001600160a01b031614610b6b5760405162461bcd60e51b8152600401610224906111b5565b6001600160a01b038116610b915760405162461bcd60e51b815260040161022490611056565b610b9a81610c3f565b50565b6000610ba9828461142f565b9392505050565b610c35846323b872dd60e01b858585604051602401610bd193929190610fd9565b60408051601f198184030181529190526020810180517bffffffffffffffffffffffffffffffffffffffffffffffffffffffff167fffffffff0000000000000000000000000000000000000000000000000000000090931692909217909152610d1a565b50505050565b3390565b600180546001600160a01b038381166101008181027fffffffffffffffffffffff0000000000000000000000000000000000000000ff85161790945560405193909204169182907f8be0079c531659141344cd1fd0a4f28419497f9722a3daafe3b4186f6b6457e090600090a35050565b6000610ba982846113d8565b610d168282604051602401610cd2929190611034565b60408051601f198184030181529190526020810180517bffffffffffffffffffffffffffffffffffffffffffffffffffffffff166309710a9d60e41b179052610dae565b5050565b6000610d6f826040518060400160405280602081526020017f5361666545524332303a206c6f772d6c6576656c2063616c6c206661696c6564815250856001600160a01b0316610dcf9092919063ffffffff16565b805190915015610da95780806020019051810190610d8d9190610f0c565b610da95760405162461bcd60e51b8152600401610224906112d0565b505050565b80516a636f6e736f6c652e6c6f67602083016000808483855afa5050505050565b6060610dde8484600085610de6565b949350505050565b606082471015610e085760405162461bcd60e51b815260040161022490611121565b610e1185610ea6565b610e2d5760405162461bcd60e51b815260040161022490611262565b600080866001600160a01b03168587604051610e499190610fa9565b60006040518083038185875af1925050503d8060008114610e86576040519150601f19603f3d011682016040523d82523d6000602084013e610e8b565b606091505b5091509150610e9b828286610eac565b979650505050505050565b3b151590565b60608315610ebb575081610ba9565b825115610ecb5782518084602001fd5b8160405162461bcd60e51b81526004016102249190611021565b600060208284031215610ef6578081fd5b81356001600160a01b0381168114610ba9578182fd5b600060208284031215610f1d578081fd5b81518015158114610ba9578182fd5b600060208284031215610f3d578081fd5b5035919050565b600060208284031215610f55578081fd5b5051919050565b60008060408385031215610f6e578081fd5b50508035926020909101359150565b60008151808452610f95816020860160208601611446565b601f01601f19169290920160200192915050565b60008251610fbb818460208701611446565b9190910192915050565b6001600160a01b0391909116815260200190565b6001600160a01b039384168152919092166020820152604081019190915260600190565b6001600160a01b03929092168252602082015260400190565b901515815260200190565b600060208252610ba96020830184610f7d565b6000604082526110476040830185610f7d565b90508260208301529392505050565b60208082526026908201527f4f776e61626c653a206e6577206f776e657220697320746865207a65726f206160408201527f6464726573730000000000000000000000000000000000000000000000000000606082015260800190565b6020808252601d908201527f416d6f756e74206d7573742062652067726561746572207468616e2030000000604082015260600190565b60208082526013908201527f496e76616c6964206c6f636b20706572696f6400000000000000000000000000604082015260600190565b60208082526026908201527f416464726573733a20696e73756666696369656e742062616c616e636520666f60408201527f722063616c6c0000000000000000000000000000000000000000000000000000606082015260800190565b60208082526010908201527f5061757361626c653a2070617573656400000000000000000000000000000000604082015260600190565b6020808252818101527f4f776e61626c653a2063616c6c6572206973206e6f7420746865206f776e6572604082015260600190565b60208082526021908201527f4e6f7420656e6f75676820746f6b656e7320696e2074686520747265617375726040820152607960f81b606082015260800190565b6020808252601f908201527f4e6f7420656e6f75676820746f6b656e7320696e207468652077616c6c657400604082015260600190565b6020808252601d908201527f416464726573733a2063616c6c20746f206e6f6e2d636f6e7472616374000000604082015260600190565b60208082526018908201527f4c6f636b20706572696f64206e6f742065786365656465640000000000000000604082015260600190565b6020808252602a908201527f5361666545524332303a204552433230206f7065726174696f6e20646964206e60408201527f6f74207375636365656400000000000000000000000000000000000000000000606082015260800190565b6020808252601f908201527f5265656e7472616e637947756172643a207265656e7472616e742063616c6c00604082015260600190565b60208082526030908201527f416d6f756e74206d7573742062652067726561746572206f7220657175616c2060408201527f746f207374616b656420616d6f756e7400000000000000000000000000000000606082015260800190565b90815260200190565b918252602082015260400190565b600082198211156113eb576113eb611472565b500190565b60008261140b57634e487b7160e01b81526012600452602481fd5b500490565b600081600019048311821515161561142a5761142a611472565b500290565b60008282101561144157611441611472565b500390565b60005b83811015611461578181015183820152602001611449565b83811115610c355750506000910152565b634e487b7160e01b600052601160045260246000fdfe232323232323232323232323232072657761726452617465202323232323232323232323232323232323232323232323232074696d657374616d70202323232323232323232323232323232323232323232323232074696d6544696666202323232323232323232323232323232323232323232323232072657761726442616c616e636520232323232323232323232323232323232323232323232323207374616b656442616c616e636520232323232323232323232323232323232323232323232323206c61737454696d65202323232323232323232323a264697066735822122004aec04769f9d9f2204f9746caa939a0cf1ab55cc14e020c895892ed8173c7df64736f6c63430008000033",
  "devdoc": {
    "kind": "dev",
    "methods": {
      "owner()": {
        "details": "Returns the address of the current owner."
      },
      "paused()": {
        "details": "Returns true if the contract is paused, and false otherwise."
      },
      "renounceOwnership()": {
        "details": "Leaves the contract without owner. It will not be possible to call `onlyOwner` functions anymore. Can only be called by the current owner. NOTE: Renouncing ownership will leave the contract without an owner, thereby removing any functionality that is only available to the owner."
      },
      "transferOwnership(address)": {
        "details": "Transfers ownership of the contract to a new account (`newOwner`). Can only be called by the current owner."
      }
    },
    "version": 1
  },
  "userdoc": {
    "kind": "user",
    "methods": {},
    "version": 1
  },
  "storageLayout": {
    "storage": [
      {
        "astId": 206,
        "contract": "contracts/staking/StakingReward.sol:StakingRewards",
        "label": "_status",
        "offset": 0,
        "slot": "0",
        "type": "t_uint256"
      },
      {
        "astId": 121,
        "contract": "contracts/staking/StakingReward.sol:StakingRewards",
        "label": "_paused",
        "offset": 0,
        "slot": "1",
        "type": "t_bool"
      },
      {
        "astId": 7,
        "contract": "contracts/staking/StakingReward.sol:StakingRewards",
        "label": "_owner",
        "offset": 1,
        "slot": "1",
        "type": "t_address"
      },
      {
        "astId": 2381,
        "contract": "contracts/staking/StakingReward.sol:StakingRewards",
        "label": "_baseToken",
        "offset": 0,
        "slot": "2",
        "type": "t_contract(IERC20)859"
      },
      {
        "astId": 2384,
        "contract": "contracts/staking/StakingReward.sol:StakingRewards",
        "label": "_rewardTreasury",
        "offset": 0,
        "slot": "3",
        "type": "t_contract(IRewardTreasury)2210"
      },
      {
        "astId": 2387,
        "contract": "contracts/staking/StakingReward.sol:StakingRewards",
        "label": "_loyaltyProgram",
        "offset": 0,
        "slot": "4",
        "type": "t_contract(ILoyaltyProgram)2190"
      },
      {
        "astId": 2389,
        "contract": "contracts/staking/StakingReward.sol:StakingRewards",
        "label": "_totalStaked",
        "offset": 0,
        "slot": "5",
        "type": "t_uint256"
      },
      {
        "astId": 2392,
        "contract": "contracts/staking/StakingReward.sol:StakingRewards",
        "label": "_minLockDays",
        "offset": 0,
        "slot": "6",
        "type": "t_uint256"
      },
      {
        "astId": 2395,
        "contract": "contracts/staking/StakingReward.sol:StakingRewards",
        "label": "_maxLockDays",
        "offset": 0,
        "slot": "7",
        "type": "t_uint256"
      },
      {
        "astId": 2399,
        "contract": "contracts/staking/StakingReward.sol:StakingRewards",
        "label": "_stakedBalances",
        "offset": 0,
        "slot": "8",
        "type": "t_mapping(t_address,t_uint256)"
      },
      {
        "astId": 2403,
        "contract": "contracts/staking/StakingReward.sol:StakingRewards",
        "label": "_rewardBalances",
        "offset": 0,
        "slot": "9",
        "type": "t_mapping(t_address,t_uint256)"
      },
      {
        "astId": 2407,
        "contract": "contracts/staking/StakingReward.sol:StakingRewards",
        "label": "_lockPeriods",
        "offset": 0,
        "slot": "10",
        "type": "t_mapping(t_address,t_uint256)"
      },
      {
        "astId": 2411,
        "contract": "contracts/staking/StakingReward.sol:StakingRewards",
        "label": "_lastStakeTimes",
        "offset": 0,
        "slot": "11",
        "type": "t_mapping(t_address,t_uint256)"
      },
      {
        "astId": 2415,
        "contract": "contracts/staking/StakingReward.sol:StakingRewards",
        "label": "_lastWithdrawTimes",
        "offset": 0,
        "slot": "12",
        "type": "t_mapping(t_address,t_uint256)"
      },
      {
        "astId": 2419,
        "contract": "contracts/staking/StakingReward.sol:StakingRewards",
        "label": "_lastClaimTimes",
        "offset": 0,
        "slot": "13",
        "type": "t_mapping(t_address,t_uint256)"
      }
    ],
    "types": {
      "t_address": {
        "encoding": "inplace",
        "label": "address",
        "numberOfBytes": "20"
      },
      "t_bool": {
        "encoding": "inplace",
        "label": "bool",
        "numberOfBytes": "1"
      },
      "t_contract(IERC20)859": {
        "encoding": "inplace",
        "label": "contract IERC20",
        "numberOfBytes": "20"
      },
      "t_contract(ILoyaltyProgram)2190": {
        "encoding": "inplace",
        "label": "contract ILoyaltyProgram",
        "numberOfBytes": "20"
      },
      "t_contract(IRewardTreasury)2210": {
        "encoding": "inplace",
        "label": "contract IRewardTreasury",
        "numberOfBytes": "20"
      },
      "t_mapping(t_address,t_uint256)": {
        "encoding": "mapping",
        "key": "t_address",
        "label": "mapping(address => uint256)",
        "numberOfBytes": "32",
        "value": "t_uint256"
      },
      "t_uint256": {
        "encoding": "inplace",
        "label": "uint256",
        "numberOfBytes": "32"
      }
    }
  }
}